:04000000A9EF15F05F
:08000800046ED8CF05F0E0CF33
:1000100006F00001E9CF0CF0EACF07F0E1CF08F0DD
:10002000E2CF09F0D9CF0AF0DACF0BF0F3CF12F01C
:10003000F4CF13F0FACF14F0F5CF15F0F6CF16F099
:10004000F7CF17F000C00EF001C00FF002C010F0A3
:1000500003C011F09DAA30EF00F09EBA19EF01F035
:100060009DA036EF00F09EB085EF00F0A0A23CEF1F
:1000700000F0A1B2E0EF00F00EC000F00FC001F000
:1000800010C002F011C003F00CC0E9FF07C0EAFF86
:10009000078E08C0E1FF09C0E2FF0AC0D9FF0BC00C
:1000A000DAFF12C0F3FF13C0F4FF14C0FAFF15C04B
:1000B000F5FF16C0F6FF17C0F7FF045006C0E0FFBB
:1000C00005C0D8FF1000F76AD60FF66E000EF722B3
:1000D0000900F5501200280C0106F76AEA0FF66EC7
:1000E000000EF7220900F5501200424F52524152C1
:1000F0005F414C4C0D00F76A060FF66E010EF722B9
:100100000900F55012003A2F00003E2AD8B43F2AC9
:10011000B22BA72BD8B4A82BA85303E1A75163088F
:1001200006E2A86BA76BA92BD8B4AA2BAC2B93889B
:10013000556A81B8552A555203E15D2AD8B45E2A22
:100140009588566A83B8562A565203E15F2AD8B476
:10015000602B9384576A81B4572A575203E1612B6D
:10016000D8B4622B9386586A81B6582A585203E154
:10017000632BD8B4642B9380596A81B0592A5952A1
:1001800003E1652BD8B4662B93825A6A81B25A2A4E
:100190005A5203E1672BD8B4682BA12BD8B4A22BF9
:1001A000A32BD8B4A42BA52BD8B4A62B4E2AD8B4F5
:1001B0004F2AE70ECF6E960ECE6E9E903CEF00F06B
:1001C000AF2BD8B4B02BFE0EB36E0C0EB26EA19254
:1001D0003CEF00F0030E0101E95F0AE3010EEA6E55
:1001E000E90EE96EEF5004E001D000D0EF2EFDD70C
:1001F000000104EF01F0200E0101E76F020EE86F2D
:100200009B0EE96F0001E6D70101E82FF9D7E72F30
:1002100003D01F6A016A0AD09EAAF0D7AB501F6EA6
:10022000AE50016E1FA202D0AB98AB8800012DEF3B
:1002300001F0F29CF29EF2BEFDD7416A41501E08C9
:100240001FE3036A4150910FE96E010E0320EA6E2D
:10025000EACFE6F1E9CFE5F1CED7E6C1EAFFE5C1A5
:10026000E9FF01C0EFFF412A036A4150910FE96E97
:10027000010E0320EA6EEF500D0801E101D0DED738
:10028000010E436EAD6F9E9A3CEF00F00C424F5250
:100290005241525F414C4C00424F525241525F41D9
:1002A0004C4C0D0052455345545F4F4B0D0A000016
:1002B00052455345545F4F4B0D0A0000424F525276
:1002C00041525F414C4C0D0043324F4B00004331D3
:1002D0004F4B000053455249414C5F544F4B0D006A
:1002E00043324F4B0000537562320000633D3000D3
:1002F000202020200000202020200000202020207E
:100300000000424C0000424C0000424C0000202003
:100310000000534F4C4943495441444F0D00504154
:1003200053414A45524F533A0D0053323A254C64DB
:10033000200042323A254C6420004143432B3031A7
:100340003A2530344C752C2530344C752C253034FE
:100350004C752C2530334C752C2530334C752C25A1
:100360003032752C0D0A00004143432B30313A25C1
:1003700030344C752C2530344C752C444553432C6B
:100380002530334C752C3030302C253032752C0D07
:100390000A004445534300000C00200020002000C8
:1003A000200020002000200020002000200020004D
:1003B00020006D656D6F72793A25730D0000533121
:1003C0003A254C64200042313A254C6420005332D7
:1003D0003A254C64200042323A254C6420005331C7
:1003E0003A202020200042313A20202020005332A1
:1003F0003A254C64200042323A254C642000534593
:100400005249414C544553540D0A0000535542493A
:10041000454E444F43320000010EEA6EDB0EE96E9A
:10042000EF500DE0060E016E006A002EFED7012E81
:10043000FBD77B0E006E002EFED7EF2EF3D71200F7
:100440000101E2B102D0899801D089889298E2B383
:1004500002D0899401D089849294E2B502D0899225
:1004600001D089829292E2B702D0899001D089802E
:100470009290000092968986020E006E002EFED7A2
:1004800000D00000929689960001120096948D94F7
:10049000630E006E002EFED700D00101DF5303E093
:1004A00096948D8402D096948D94000092968996AD
:1004B000E039E16F0F0EE117E1C1E2F10001C0DFA9
:1004C0000101E0510F0BE16FE26F0001B9DF120093
:1004D000010E216E96948D9492968996230E0101B9
:1004E000DB6F000199DF0101D06BD05102080CE3F2
:1004F000030EE26F0001A4DF050E0101DB6F0001B6
:100500008BDF0101D02BF1D7020EE26F000198DFE3
:100510000101D06BD051030812E3036AD0510001EE
:10052000D2DD0101D16FDF6BE06F0001AFDF050E9F
:100530000101DB6F000170DF0101D02BEBD700015F
:100540008FEF16F0958E958C91EF16F0080E016ED8
:10055000050E006E002EFED78C9E959E060E006E38
:10056000002EFED70101DA378C9CD8B0958CD8A02C
:10057000959C958E83AEFED7012E01D002D000014E
:10058000E7D7050E006E002EFED78C9E959E0000CC
:10059000958C060E006E002EFED7060E006E002E05
:1005A000FED7958E83AEFED7016A060E006E002E32
:1005B000FED783BC01808C9E959E8C9C959C0001EF
:1005C0001200958C050E006E002EFED7958E060E3D
:1005D000006E002EFED78C9C959C050E006E002EA2
:1005E000FED78C9E959EA00E0101DA6F0001AEDF52
:1005F000D5C1D8F10101D96BD5C1DAF10001A6DF6F
:10060000D4C1DAF1A3DFD6C1DAF1A0DF959C0000F6
:10061000958E83AEFED7050E006E002EFED700D05D
:100620000000958C050E006E002EFED7958C050EF1
:10063000006E002EFED7958E060E006E002EFED7A1
:100640008C9C959C050E006E002EFED78C9E959E70
:10065000A00E0101DA6F000179DF01500101D7918D
:1006600001B0D781D7A11ED0958C050E006E002E4B
:10067000FED7958E060E006E002EFED783AEFED7F7
:100680008C9C959C050E006E002EFED78C9E959E30
:10069000A00EDA6F00015ADF01500101D79101B0BD
:1006A000D781E0D7959C0000958E83AEFED7050ECE
:1006B000006E002EFED700D00000958C050E006E57
:1006C000002EFED700011200F29CF29EF2BEFDD772
:1006D0000101D06BD16BD36BD26BD36BD26BD16B6F
:1006E000D06B3DC0D3F13CC0D2F1D2C1D1F1D3C166
:1006F000D0F1D56B140ED46FD0C1D6F1000161DFFB
:100700000101D56B150ED46FD1C1D6F1000159DFAF
:10071000C00EF2121200080E0101D86F00C0D9F10C
:10072000958C060E006E002EFED7958E83AEFED7FA
:1007300083BCD88083ACD8900136050E006E002EA5
:10074000FED7959E8C9ED82FEBD7958C060E006E0B
:10075000002EFED78C9CD951D8A4959C0000958E74
:1007600083AEFED7050E006E002EFED78C9E959EA2
:10077000060E006E002EFED78C9C959C0001FEEFAD
:1007800003F0958C050E006E002EFED7958E060E9A
:10079000006E002EFED78C9C959C050E006E002EE0
:1007A000FED78C9E959EA00E0101DA6F0001CEDE71
:1007B000D5C1D7F10101D86BD5C1DAF10001C6DE90
:1007C000D4C1DAF1C3DE958C050E006E002EFED783
:1007D000958E060E006E002EFED783AEFED78C9C43
:1007E000959C050E006E002EFED78C9E959EA10E48
:1007F0000101DA6F0001AADE006A8DD701C0D6F1CF
:10080000959C0000958E83AEFED7050E006E002EDF
:10081000FED700D00000958C050E006E002EFED78E
:100820000101D6C101F000011200F29CF29EF2BE5D
:10083000FDD70101D06BD16BD36BD26BD56B140E8E
:10084000D46F00019EDF01C0D0F10101D56B150E00
:10085000D46F000196DF01C0D1F10101D36BD0C18B
:10086000D2F1D2C1D3F1D26BD151D213D3C13DF069
:10087000D2C13CF0C00EF212000112000101DC51A5
:10088000010A000107E0030A08E0010A0AE0070A7A
:100890000CE010D00101DD6B0FD0400E0101DD6FC7
:1008A0000BD0140E0101DD6F07D0540E0101DD6F76
:1008B00003D000010101DD6B010EDB5DDD27DD51A1
:1008C0008009DE6FDF6BE06F0001E0DD12000101E7
:1008D000DA510C0A000105E0060A11E0020A18E0EC
:1008E0001ED00101DF6B010EE06F0001CFDD010EB4
:1008F000216E020E0101DB6F00018EDD17D0212A6F
:10090000010E0101DB6F21C0DCF10001B7DF0ED069
:100910000101DF6B100EE06F0001B8DD07D0010EA2
:100920000101DF6FDAC1E0F10001B0DD1200090062
:10093000F6CFD2F1F7CFD3F1F5CFDAF1C8DFD2C1DC
:10094000F6FFD3C1F7FF0101D12F01D002D0000182
:10095000EED700011200EACFD9F1E9CFD8F10101B9
:10096000D2AF08D0D88FD8A9D82BD11FD21FD12B66
:10097000D8B4D22BD239F009D46FD427E20FD56F77
:10098000320FD76FD2510F0BD527D527D727E90FB5
:10099000D66FD627D627D1390F0BD627D727D637EC
:1009A000D737D71FD737D1510F0BD727D437070EDB
:1009B000D36F0A0ED607D727FDE3D507D627FDE369
:1009C000D407D527FDE3D307D427FDE3010EEA6E54
:1009D000D30EE96E070ED815D89DED52D81507E154
:1009E000D8B9EE52D8B903D0200E006E20D0E92637
:1009F000000EEA22E950D70803E1EA2C01D0D88D95
:100A0000EF50006E08E1D8BD06D0D8B91DD0D8B7D8
:100A100002D0200E0BD0D8AF06D02D0E006EED50B8
:100A2000D89DD89F04D0D887D899300E0026EACF19
:100A3000D2F1E9CFD1F100C0DAF1000148DFD2C133
:100A4000EAFFD1C1E9FF0101EE50D8ADD3D70001D3
:100A500012000900F5520CE0F6CFD0F1F7CFD1F13A
:100A6000F5CFDAF134DFD0C1F6FFD1C1F7FFF1D70E
:100A70001200010E0101DB6FDC6F0001FFDE455249
:100A8000D8B48FD0310E0101DA6F000120DF200EC3
:100A90000101DA6F00011BDF8CC1DAF118DF8DC1B3
:100AA000DAF115DF8EC1DAF112DF8FC1DAF10FDF73
:100AB00090C1DAF10CDF200E0101DA6F000107DFCF
:100AC0000E0E0101DB6F010EDC6F0001D7DEBE0EE2
:100AD000F66E030EF76E030E0101D16F000127DFE2
:100AE000100EE96E8BC0D2F18AC0D1F134DF200E36
:100AF0000101DA6F0001EBDE0E0E0101DB6F020E69
:100B0000DC6F0001BBDEC60EF66E030EF76E030E41
:100B10000101D16F00010BDF100EE96E8DC0D2F123
:100B20008CC0D1F118DF200E0101DA6F0001CFDE99
:100B30000E0E0101DB6F030EDC6F00019FDECE0E97
:100B4000F66E030EF76E030E0101D16F0001EFDEAA
:100B5000100EE96E35C0D2F134C0D1F1FCDE200EAA
:100B60000101DA6F0001B3DE0E0E0101DB6F040E2E
:100B7000DC6F000183DED60EF66E030EF76E030EF9
:100B80000101D16F0001D3DE100EE96E37C0D2F142
:100B900036C0D1F1E0DE200E0101DA6F000197DEF0
:100BA0006ED0320E0101DA6F000191DE200E0101DC
:100BB000DA6F00018CDE8CC1DAF189DE8DC1DAF1E9
:100BC00086DE8EC1DAF183DE8FC1DAF180DE90C17C
:100BD000DAF17DDE200E0101DA6F000178DE0E0E03
:100BE0000101DB6F010EDC6F000148DEDE0EF66EE8
:100BF000030EF76E2EDF0E0E0101DB6F020EDC6FAF
:100C000000013CDEE60EF66E030EF76E22DF0E0EDE
:100C10000101DB6F030EDC6F000130DEEE0EF66EBD
:100C2000030EF76E030E0101D16F000180DE100E7E
:100C3000E96E8BC0D2F18AC0D1F18DDE200E0101A8
:100C4000DA6F000144DE0E0E0101DB6F040EDC6F73
:100C5000000114DEF60EF66E030EF76E030E0101B0
:100C6000D16F000164DE100EE96E8DC0D2F18CC030
:100C7000D1F171DE200E0101DA6F000128DE1200D1
:100C80008C518A250101D06F00018D518B2101010A
:100C9000D16FD890D13100018F6F0101D0310001A7
:100CA0008E6FE7DE5B6A5C6A2A6A2AC029F029C077
:100CB00028F02D6A2DC02CF02CC02BF01200F29CD5
:100CC000F29EF2BEFDD70101D56B020ED46F8AC031
:100CD000D6F1000176DC8BC0D0F10101D16BD56B70
:100CE000010ED46F8BC0D6F100016BDCC00EF21286
:100CF000C7DF1200F29CF29EF2BEFDD70101D56B58
:100D0000040ED46F8CC0D6F100015BDC8DC0D0F135
:100D10000101D16BD56B030ED46F8DC0D6F10001EC
:100D200050DCC00EF212ACDF1200936B926B956B2D
:100D3000946B3D6A3C6AC8DC78DD8F6B8E6B916B7F
:100D4000906B8D6B8C6B8B6B8A6BB9DFD3DF4D6ACD
:100D50004C6A526A536A546A0101D56B090ED46F0A
:100D600052C0D6F100012DDC0101D56B0A0ED46F03
:100D700053C0D6F1000125DC0101D56B0B0ED46FF9
:100D800054C0D6F100011DDC980EF66E030EF76E0E
:100D900060DE6FDE1200F29CF29EF2BEFDD7010112
:100DA000D06BD16BD36BD26BD56B010ED46F0001BE
:100DB000E8DC01C0D0F10101D56B020ED46F000157
:100DC000E0DC01C0D1F10101D36BD0C1D2F1D2C1BD
:100DD000D5F1D46BD451D111D26FD5C1D3F1D3C1D8
:100DE0008BF0D2C18AF0C00EF2120001D8EF16F0DB
:100DF000F29CF29EF2BEFDD70101D06BD16BD36B9A
:100E0000D26BD56B030ED46F0001BBDC01C0D0F1F7
:100E10000101D56B040ED46F0001B3DC01C0D1F128
:100E20000101D36BD0C1D2F1D2C1D5F1D46BD45171
:100E3000D111D26FD5C1D3F1D3C18DF0D2C18CF015
:100E4000C00EF2120001DAEF16F00900F5520DE0C3
:100E5000F6CFD2F1F7CFD3F1F5509EA8FED7AD6E05
:100E6000D2C1F6FFD3C1F7FFF0D71200D0500F0B5D
:100E7000D0A8000ED080D082D088D886D888070A23
:100E800007E0080A06E0010A0AE0020A09E008D0C1
:100E900007D0FE0EF66E030EF76ED7DF01D000D03E
:100EA00049EF17F0100E0101D16F010ED06F208CA9
:100EB0009480100E006E002EFED70000D02F05D0BB
:100EC000D12F03D0206A016A24D082B0F2D7080E55
:100ED000006ED26BF2CFD3F1F29E008E0ED0009E48
:100EE0000CD0D89082B0D880D233008C06D0009C31
:100EF000002EF7D7D251016E0CD0A70E00BE2D0EDA
:100F0000016E012EFED7000000BEE9D700BCEFD76E
:100F1000E8D7D3BFF28E0001A7EF17F00101D6C1C9
:100F2000E9FFD7C1EAFFEFCFDAF1D9C103F0D8C1A9
:100F3000E9FFD9C1EAFFEF50DA5D15E1D7C103F04F
:100F4000D6C1E9FF03C0EAFFEF5203E1000E016ED4
:100F50001FD0D7C103F0D651D62BD8B4D72BD82B5E
:100F6000D8B4D92BDCD7D7C103F0D6C1E9FFD7C19C
:100F7000EAFFEFCFDAF1D9C103F0D8C1E9FFD9C157
:100F8000EAFFEF50DA5D02E2FF0E01D0010E016EC2
:100F90000001EBEF07F00101D26BD2510A0823E305
:100FA000036AD2C102F0D890023603360250F20F23
:100FB000E96E000E0320EA6EECCFD5F1ED52EFCFD3
:100FC000D4F1D5C1D7F1D4C1D6F1D1C1D9F1D0C1B5
:100FD000D8F10001A3D701C0D3F10101D35301E13E
:100FE00002D0D22BDAD79251410817E1935153081E
:100FF00014E19451410811E195514A080EE19651CE
:1010000045080BE19751520808E198514F0805E156
:101010009951530802E1050ED26FD2C101F00001CF
:10102000E3EF17F00101D751016AD65D03E2D6C1A3
:1010300000F00CD0006A080ED86FD6370036D751B2
:10104000005CD8B0006E0136D82FF7D7000112002F
:10105000200E0101D1A9300ED26FD0C100F0D0AF67
:1010600008D0001E002A00C0D0F12D0ED26FD18F03
:10107000D1810150D0C1D6F1640ED76F0001D2DF0B
:1010800000C0D0F1300E01240101D36FD0C1D6F1E0
:101090000A0ED76F0001C6DF300E00240101D56FA4
:1010A000300E0124D46FD2C100F0300ED35D04E0C5
:1010B000D183D1BFD18512D0D2C1D3F1200ED26F4E
:1010C000300ED45D04E0D181D1BFD18307D0D8A444
:1010D000D18104E1D3C1D4F1200ED36FD1B505D0B5
:1010E000D1B308D0D1B10BD00FD0D2C1DAF1000109
:1010F00067EC04F0D3C1DAF1000167EC04F0D4C16D
:10110000DAF1000167EC04F0D5C1DAF1000167EC17
:1011100004F01200F2CF03F0F29E94928B92080E2C
:10112000016E00D00000018E10D0019E0101D93364
:101130000001D8B08B82D8A08B92018C06D0019C84
:10114000012EF4D700D000008B82A70EE96EE92EA5
:10115000FED700D001BEE9D701BCF1D703BEF28EA5
:1011600012000900F5520CE0F6CFD0F1F7CFD1F123
:10117000F5CFD9F1CFDFD0C1F6FFD1C1F7FFF1D75D
:101180001200120EF66E030EF76E5FDEAA6BA96BED
:10119000010E466E4F6A4E6A12008C518A2501017B
:1011A000D26F00018D518B210101D36FD890D331C3
:1011B000D16FD231D06F5350522454244C6E4D6AAB
:1011C000010E0001AB6FAC6B090E0101DB6F030E6A
:1011D000DC6F00013EEC04F0AB0E0101DA6F0001A0
:1011E00067EC04F01E0EF66E030EF76E2EDE120094
:1011F000016603D0026602D007D0022A00C0EEFFCB
:10120000012EFCD7022EFAD71200DAC1DEF1D9C1C5
:10121000DDF1DEC103F00101DDC1E9FFDEC1EAFF5E
:10122000EF5230E0DCC1E0F1DBC1DFF1E0C103F0FF
:10123000DFC1E9FFE0C1EAFFEF520AE1D951DD5D0C
:10124000006EDA51DE59036E00C001F023D010D0D9
:10125000DDC1E9FFDEC1EAFFEFCFE1F1E0C103F05C
:10126000DFC1E9FFE0C1EAFFEF50E15D01E104D039
:10127000DF2BD8B4E02BDAD7DD2BD8B4DE2B00017E
:10128000C8D70101D951DD5D006EDA51DE59036E18
:1012900000C001F00001A2EF09F0DAC1DEF1D9C10E
:1012A000DDF1DEC103F00101DDC1E9FFDEC1EAFFCE
:1012B000EF522AE0DCC1E0F1DBC1DFF1E0C103F075
:1012C000DFC1E9FFE0C1EAFFEF5218E0DDC1E9FF4D
:1012D000DEC1EAFFEFCFE1F1E0C103F0DFC1E9FFDA
:1012E000E0C1EAFFEF50E15D05E1DDC101F0DEC1E3
:1012F00002F00DD0DF2BD8B4E02BE0D7DD2BD8B433
:10130000DE2B0001CED70101000E016E026E00013E
:10131000C3EF09F00101D151D21104E0D2C103F0B1
:10132000D15103D01AC003F01950D56F03C0D6F1C4
:10133000D6C1DAF1D5C1D9F1D4C1DCF1D3C1DBF129
:10134000000163D701500101D527000ED623D6C175
:1013500003F0D5C1E9FFD6C1EAFFEF520AE119C097
:10136000E9FF1AC0EAFF200EEF6E000E016E026E5A
:1013700027D0D6C1DAF1D5C1D9F1D4C1DCF1D3C1BE
:10138000DBF100018AD702C0D8F101C0D7F1D8C182
:1013900003F00101D7C1E9FFD8C1EAFFEF5208E02D
:1013A000D7C1E9FFD8C1EAFFEF6AD72BD8B4D82B51
:1013B000D8C11AF0D7C119F0D5C101F0D6C102F0D9
:1013C000000112000101D96BD76B0A0ED86FD66BE2
:1013D000D56BD46BD36BD151D21105E1006A016A90
:1013E000026A036A37D1D951D92BD125E96E000E93
:1013F000D221EA6EEFCFDAF1DA512D080CE1010EBD
:10140000D76FD951D92BD125E96E000ED221EA6EC2
:10141000EFCFDAF10CD0DA512B0809E1D951D92BF1
:10142000D125E96E000ED221EA6EEFCFDAF1DA5162
:101430002F08D8B0F7D0DA513908D8A0F3D0DA5154
:1014400030081EE1D951D125E96E000ED221EA6E95
:10145000EF50780809E0D951D125E96E000ED2216C
:10146000EA6EEF5058080CE1100ED86FD92BD95105
:10147000D92BD125E96E000ED221EA6EEFCFDAF139
:10148000D8510A0843E1DA512F083FE2DA5139080E
:101490003CE3D890D335DC6FD435DD6FD535DE6FC6
:1014A000D635DF6FD335006ED435016ED535026E7B
:1014B000D635036E00360136023603360036013665
:1014C00002360336F80E0016DC510026DD510122EB
:1014D000DE510222DF51032203C0D6F102C0D5F152
:1014E00001C0D4F100C0D3F1300EDA5DD327000E75
:1014F000D423D523D623D951D92BD125E96E000E7B
:10150000D221EA6EEFCFDAF1BED78CD0D8511008D5
:10151000D8A488D0DA51600806E2DA517A0803E3E9
:10152000DA51DF0B01D0DA51DA6FDA512F0803E21A
:10153000DA51390807E2DA514008D8B073D0DA51ED
:10154000460870E3DA512F082EE2DA5139082BE30E
:10155000D335DC6FD435DD6FD535DE6FD635DF6F33
:10156000DC37DD37DE37DF37DC37DD37DE37DF37D7
:10157000DC37DD37DE37DF37F00EDC17300EDA5DB3
:10158000DC25006E000EDD21016E000EDE21026EF4
:10159000000EDF21036ED66F02C0D5F101C0D4F179
:1015A00000C0D3F12AD0D335DC6FD435DD6FD5350B
:1015B000DE6FD635DF6FDC37DD37DE37DF37DC3720
:1015C000DD37DE37DF37DC37DD37DE37DF37F00E8C
:1015D000DC17410EDA5D0A0FDC25006E000EDD21FE
:1015E000016E000EDE21026E000EDF21D66F02C0FA
:1015F000D5F101C0D4F100C0D3F1D951D92BD125F7
:10160000E96E000ED221EA6EEFCFDAF1DA5160080E
:1016100006E2DA517A0803E3DA51DF0B01D0DA513E
:10162000DA6F83D7D8510A080DE1D72D0BD0D31F1D
:10163000D41FD51FD61FD32BD8B4D42BD8B4D52BB9
:10164000D8B4D62BD3C100F0D4C101F0D5C102F07B
:10165000D6C103F0000112009D9A396A386A3B6ACC
:101660003A6A2F6A2E6A316A306A976B966B336AD0
:10167000326A916B906B010EEA6EB10EE96E006AF0
:10168000026A050E016EB4DD010EEA6EB60EE96E59
:10169000006A026A050E016EABDD010EEA6EBB0E3A
:1016A000E96E006A026A050E016EA2DD010EEA6EA5
:1016B000BB0EE96E006A026A050E016E99DD0A0E24
:1016C000416E426AEA6AB50EE96E000E7BEC00F0EC
:1016D0000A000900F550EE6E0009FBE1010E010160
:1016E000D26F910ED16FD46BB50ED36F000112DEA5
:1016F00002C0B9F001C0B8F00101D06BEA6ABA0EBD
:10170000E96EB9C0E2FFB8C0E1FFE752E6CFEEFFF5
:10171000FCE1D26BD16BD46BB50ED36F0001FADD57
:1017200002C0D2F101C0D1F1EA6AC80EE96E02C06E
:10173000E2FF01C0E1FFE752E6CFEEFFFCE101016D
:10174000D26BD16BD46BB50ED36F0001E3DD02C059
:10175000D2F101C0D1F1EA6AD20EE96E02C0E2FF15
:1017600001C0E1FFE752E6CFEEFFFCE10101D26BE1
:10177000D16BD46BB50ED36F0001CCDD02C0D2F1BA
:1017800001C0D1F1EA6ADC0EE96E02C0E2FF01C0DD
:10179000E1FFE752E6CFEEFFFCE10101D26BD16B36
:1017A000D46BB50ED36F0001B5DD02C0D2F101C01C
:1017B000D1F1EA6AE60EE96E02C0E2FF01C0E1FF84
:1017C000E752E6CFEEFFFCE10101D26BD16BD46BA7
:1017D000B50ED36F00019EDD02C0B9F001C0B8F0B4
:1017E0000101D02BD26BC80ED16F0001EBDD01C01F
:1017F00035F000C034F00101D26BD20ED16F000180
:10180000E1DD01C037F000C036F00101D26BDC0E23
:10181000D16F0001D7DD01C097F000C096F0010143
:10182000D26BE60ED16F0001CDDD01C033F000C0F8
:1018300032F00E0E0101DB6F030EDC6F00013EEC97
:1018400004F02A0EF66E030EF76E030E0101D16F3F
:10185000000197EC04F0100EE96E35C0D2F134C0EF
:10186000D1F1ABEC04F0200E0101DA6F000167EC5E
:1018700004F00E0E0101DB6F040EDC6F00013EEC84
:1018800004F0320EF66E030EF76E030E0101D16FF7
:10189000000197EC04F0100EE96E37C0D2F136C0AB
:1018A000D1F1ABEC04F0200E0101DA6F000167EC1E
:1018B00004F04CEF18F0455206E10C0EF66E040EE3
:1018C000F76E25EC07F01200949A8B8AF4DFB26B66
:1018D000010EB36FB42B12000900F6CFD1F1F7CF90
:1018E000D2F1F5CFD9F116DCD1C1F6FFD2C1F7FFA5
:1018F0000101D02F01D002D00001EED7000112006B
:10190000EACFD8F1E9CFD7F10101D139F009D36F8E
:10191000D327E20FD46F320FD66FD1510F0BD427DC
:10192000D427D627E90FD56FD527D527D0390F0B68
:10193000D527D627D537D637D61FD637D0510F0B58
:10194000D627D337070ED26F0A0ED507D627FDE369
:10195000D407D527FDE3D307D427FDE3D207D32748
:10196000FDE3010EEA6ED20EE96E070ED715D79D84
:10197000E926000EEA22E950D60803E1EA2C01D05C
:10198000D78DEF50006E08E1D7BD06D0D7B916D07D
:10199000D7B702D0200E03D0D787D799300E0026B4
:1019A000EACFD1F1E9CFD0F100C0D9F100018AEC42
:1019B00008F0D1C1EAFFD0C1E9FF0101EE50D7AD77
:1019C000DAD7000112000150D0C1D6F1640E010136
:1019D000D76F000112EC08F000C0D0F10150300EBA
:1019E00008E10101D1A310D0D1B70ED0D1B9200E9A
:1019F00004D00101D197D199D181012601C0D9F13B
:101A000000018AEC08F00101D0C1D6F10A0ED76FAF
:101A1000000112EC08F000C0D0F10150300E08E1D6
:101A20000101D1B70BD0D1A109D0D1B9200E00014D
:101A3000012601C0D9F18AEC08F00101300ED0274F
:101A4000D0C1D9F100018AEC08F012009D9A5350E0
:101A5000522454244C6E4D6A010EEA6EB10EE96EAA
:101A6000006A026A050E016EF8EC08F0010EEA6EDB
:101A7000B60EE96E006A026A050E016EF8EC08F017
:101A8000010EEA6EBB0EE96E006A026A050E016E77
:101A9000F8EC08F00A0E416E426A8C518A25010169
:101AA000D06F00018D518B210101D16FD890D131C0
:101AB000396ED031386E000115EC04F03C503824FA
:101AC000906F3D503920916F010E236E680EF66EB7
:101AD000030EF76E070E0101D06F0001FDDE090E47
:101AE000E96E91C0D1F190C0D0F10ADF2C0E010156
:101AF000D96F00018AEC08F0090EE96E39C0D1F106
:101B000038C0D0F1FDDE7A0EF66E030EF76E060ECB
:101B10000101D06F0001E0DE0A0EE96E4DC0D1F187
:101B20004CC0D0F1EDDE850EF66E030EF76E050E9D
:101B30000101D06F0001D0DE23C0D0F1010E010100
:101B4000D16F000140DF8E0EF66E030EF76E030EAE
:101B50000101D06F0001C0DE090E0101DB6F030E31
:101B6000DC6F00013EEC04F0AB0E0101DA6F000106
:101B700067EC04F0090E0101DB6F040EDC6F00015D
:101B80003EEC04F0920EF66E030EF76E29EC05F0B3
:101B9000010EAB6FAC6BAA6BA96B466A9D8A02EF14
:101BA00019F035C02FF034C02EF037C031F036C0F8
:101BB00030F08C518A250101D06F00018D518B21AD
:101BC0000101D16FD890D131396ED031386E30509B
:101BD0002E24D06F31502F20D16FD890D131516E3B
:101BE000D031506E000115EC04F03250505C0FE122
:101BF0003350515C0CE151C03BF050C03AF03BC057
:101C00003DF03AC03CF064EC03F0236A02D0020ECF
:101C1000236E3A503824906F3B503920916F5350C7
:101C2000522454244C6E4D6A3A0EF66E030EF76E33
:101C3000070E0101D06F00014FDE090EE96E91C061
:101C4000D1F190C0D0F15CDE2C0E0101D96F000102
:101C50008AEC08F0090EE96E39C0D1F138C0D0F134
:101C60004FDE2C0E0101D96F00018AEC08F0090E3D
:101C7000E96E3BC0D1F13AC0D0F142DE2C0E010139
:101C8000D96F00018AEC08F00A0EE96E4DC0D1F15F
:101C90004CC0D0F135DE2C0E0101D96F00018AEC69
:101CA00008F00A0EE96E97C0D1F196C0D0F128DE97
:101CB0002C0E0101D96F00018AEC08F023C0D0F18D
:101CC000010E0101D16F00017EDE630EF66E030E80
:101CD000F76E030E0101D06F0001FEDD39EC05F057
:101CE000090E0101DB6F030EDC6F00013EEC04F016
:101CF000AB0E0101DA6F000167EC04F0010EAB6F6F
:101D0000AC6BAA6BA96B246A9D8A06EF19F05B5233
:101D100022E15C5220E1692D03D06B2D01D009D066
:101D2000692D03D06D2D01D004D06B2D04D06D2D05
:101D300002D0010E5B6E6A2D03D06C2D01D009D04C
:101D40006A2D03D06E2D01D004D06C2D04D06E2DE1
:101D500002D0010E5C6E1200755322E1692D20D075
:101D60006A531EE177531CE178531AE15B5203E199
:101D70005C5201E1CCDF080E0101DB6F020EDC6F6B
:101D800000013EEC04F07F0E0101DA6F000167EC08
:101D900004F0010E986F766F776F796F756F1ED1B3
:101DA00075530EE1692D0CD06A2D0AD0772D08D01D
:101DB000785306E1030E766F796B010E756F0ED1C5
:101DC00075530DE169530BE16A2D09D0772D07D0CA
:101DD000785305E1040E766F010E756FFFD07553D1
:101DE0002AE1695328E16A5326E1795324E1772DEA
:101DF00022D0785320E1080E0101DB6F020EDC6F68
:101E000000013EEC04F09A0EF66E030EF76E29EC1C
:101E100005F0986B7B51040806E1050E766F776B31
:101E2000010E756F07D0986B060E766F776B796B26
:101E3000010E756FD3D0755320E169531EE16A53CB
:101E40001CE1792D1AD0772D18D0785316E1080EA1
:101E50000101DB6F020EDC6F00013EEC04F09C0E12
:101E6000F66E030EF76E29EC05F0986B060E766F92
:101E7000776B796B010E756FB1D075530EE1692DDB
:101E80000CD06A530AE1772D08D0785306E1020E90
:101E9000766F010E796F756FA1D0755323E1695389
:101EA00021E16A2D1FD077531DE178531BE15B526E
:101EB00003E15C5201E12BDF080E0101DB6F020E32
:101EC000DC6F00013EEC04F07E0E0101DA6F0001D0
:101ED00067EC04F0010E986F070E766F010E786FB5
:101EE000756F7CD075530EE169530CE16A2D0AD0F1
:101EF000775308E1782D06D0080E766F010E796FC2
:101F0000756F6CD075530EE1692D0CD06A2D0AD017
:101F1000775308E1782D06D0090E766F796B010EA4
:101F2000756F5CD075530DE1692D0BD06A5309E1D3
:101F3000775307E1782D05D00A0E766F010E756F85
:101F40004DD075532AE1695328E16A5326E179534C
:101F500024E1775322E1782D20D0080E0101DB6FB8
:101F6000020EDC6F00013EEC04F09E0EF66E030ED6
:101F7000F76E29EC05F07B510A0807E1986B0B0E10
:101F8000766F786B010E756F07D0986B0C0E766FBD
:101F9000786B796B010E756F21D075531FE1695312
:101FA0001DE16A531BE1792D19D0775317E1782D84
:101FB00015D0080E0101DB6F020EDC6F00013EEC54
:101FC00004F0A00EF66E030EF76E29EC05F0986B88
:101FD0000C0E766F786B796B010E756F120069537A
:101FE00036E16A5334E16B5332E16C5330E16D53A7
:101FF0002EE16E532CE1295028242A24256E2C50E2
:102000002B242D24266E2550010803E326500108B9
:102010000FE22550265C07E28A2BD8B48B2B5FECAD
:1020200006F052DC05D08C2BD8B48D2B7AEC06F060
:102030002A6A2AC029F029C028F028C025F02D6A74
:102040002DC02CF02CC02BF02BC026F085D09E5339
:1020500005E19F5303E1A053D8B47ED09F519E2544
:10206000A025276E272C4CD09E5317E06B5314E10C
:102070006C5312E16D5310E16E530EE15B2C07D0EF
:102080008A2BD8B48B2B5FEC06F01EDC05D08C2B92
:10209000D8B48D2B7AEC06F032D09F5317E06953F9
:1020A00014E16A5312E16D5310E16E530EE15B527D
:1020B00007E08A2BD8B48B2B5FEC06F005DC05D04B
:1020C0008C2BD8B48D2B7AEC06F019D0A05317E0E6
:1020D0006B5315E16C5313E1695311E16A530FE13E
:1020E0005B5208E08A2BD8B48B2B5FEC06F064ECD3
:1020F0000CF005D08C2BD8B48D2B7AEC06F01ED0CA
:10210000295028242A24256E2C502B242D24266E79
:102110002550000803E32650000810E22550265CF5
:1021200008E28A2BD8B48B2B5FEC06F064EC0CF041
:1021300005D08C2BD8B48D2B7AEC06F02A6A2AC0F5
:1021400029F029C028F028C025F02D6A2DC02CF0D8
:102150002CC02BF02BC026F0120076517B5D04E0E2
:1021600076C07BF0010E7A6F7A2D1ED0010E765D5F
:10217000F40F18E20C0FD5EF10F014D02B5203E13E
:10218000010E286E01D02B6A2ADF0CD028DF0AD07E
:1021900009D0285203E1010E2B6E01D0286A1FDFFF
:1021A00001D01DDF7A6B756B1200E824F76AF736F1
:1021B000C50FF66E210EF7220A00F550FA6E0800E0
:1021C000F550F96E7A21A421A421A4217C218C212F
:1021D0009021A421A421A4219221A2217C5322E1B7
:1021E0006B2D20D06C531EE17E531CE17F531AE10E
:1021F0005B5203E15C5201E18ADD080E0101DB6FF5
:10220000030EDC6F00013EEC04F07F0E0101DA6F7B
:10221000000167EC04F0010E996F7D6F7E6F806F97
:102220007C6F1ED17C530EE16B2D0CD06C2D0AD02F
:102230007E2D08D07F5306E1030E7D6F806B010E6B
:102240007C6F0ED17C530DE16B530BE16C2D09D0EB
:102250007E2D07D07F5305E1040E7D6F010E7C6F4C
:10226000FFD07C532AE16B5328E16C5326E1805365
:1022700024E17E2D22D07F5320E1080E0101DB6F87
:10228000030EDC6F00013EEC04F0A20EF66E030EAE
:10229000F76E29EC05F08251040807E1996B050EF1
:1022A0007D6F7E6B010E7C6F07D0996B060E7D6F84
:1022B0007E6B806B010E7C6FD3D07C5320E16B531F
:1022C0001EE16C531CE1802D1AD07E2D18D07F5357
:1022D00016E1080E0101DB6F030EDC6F00013EEC1E
:1022E00004F0A40EF66E030EF76E29EC05F0996B60
:1022F000060E7D6F7E6B806B010E7C6FB1D07C53C0
:102300000EE16B2D0CD06C530AE17E2D08D07F536B
:1023100006E1020E7D6F010E806F7C6FA1D07C53B1
:1023200023E16B5321E16C2D1FD07E531DE17F53C0
:102330001BE15B5203E15C5201E1E9DC080E0101A3
:10234000DB6F030EDC6F00013EEC04F07E0E01013A
:10235000DA6F000167EC04F0010E996F070E7D6FD4
:10236000010E7F6F7C6F7CD07C530EE16B530CE1D0
:102370006C2D0AD07E5308E17F2D06D0080E7D6FAC
:10238000010E806F7C6F6CD07C530EE16B2D0CD0F6
:102390006C2D0AD07E5308E17F2D06D0090E7D6F8B
:1023A000806B010E7C6F5CD07C530DE16B2D0BD0EC
:1023B0006C5309E17E5307E17F2D05D00A0E7D6F36
:1023C000010E7C6F4DD07C532AE16B5328E16C5396
:1023D00026E1805324E17E5322E17F2D20D0080E98
:1023E0000101DB6F030EDC6F00013EEC04F0A60E72
:1023F000F66E030EF76E29EC05F082510A0807E12C
:10240000996B0B0E7D6F7F6B010E7C6F07D0996B04
:102410000C0E7D6F7F6B806B010E7C6F21D07C5327
:102420001FE16B531DE16C531BE1802D19D07E53CE
:1024300017E17F2D15D0080E0101DB6F030EDC6F55
:1024400000013EEC04F0A80EF66E030EF76E29ECC8
:1024500005F0996B0C0E7D6F7F6B806B010E7C6FAE
:1024600012007D51825D04E07DC082F0010E816F1B
:10247000812D1ED0010E7D5DF40F18E20C0F59EF77
:1024800012F014D02C5203E1010E296E01D02C6AF7
:10249000A6DD0CD0A4DD0AD009D0295203E1010E3B
:1024A0002C6E01D0296A9BDD01D099DD816B7C6B9C
:1024B0001200E824F76AF736CD0FF66E240EF722E5
:1024C0000A00F550FA6E0800F550F96E8224AC242B
:1024D000AC24AC24842494249824AC24AC24AC24D0
:1024E0009A24AA24835322E16D2D20D06E531EE13D
:1024F00085531CE186531AE15B5203E15C5201E112
:1025000006DC080E0101DB6F040EDC6F00013EECFF
:1025100004F07F0E0101DA6F000167EC04F0010E98
:102520009A6F846F856F876F836F1FD183530EE11E
:102530006D2D0CD06E2D0AD0852D08D0865306E166
:10254000030E846F876B010E836F0FD183530DE1F0
:102550006D530BE16E2D09D0852D07D0865305E113
:10256000040E846F010E836F00D183532AE16D53F3
:1025700028E16E5326E1875324E1852D22D086532E
:1025800020E1080E0101DB6F040EDC6F00013EEC60
:1025900004F0AA0EF66E030EF76E29EC05F08951D1
:1025A000040807E19A6B050E846F856B010E836F3B
:1025B00007D09A6B060E846F856B876B010E836F55
:1025C000D4D0835320E16D531EE16E531CE1872D5F
:1025D0001AD0852D18D0865316E1080E0101DB6F45
:1025E000040EDC6F00013EEC04F0AC0EF66E030E40
:1025F000F76E29EC05F09A6B060E846F856B876B7E
:10260000010E836FB2D083530EE16D2D0CD06E534B
:102610000AE1852D08D0865306E1020E846F010E73
:10262000876F836FA2D0835324E16D5322E16E2D17
:1026300020D085531EE186531CE15B5204E15C52BD
:1026400002E187EC0EF0080E0101DB6F040EDC6F77
:1026500000013EEC04F07E0E0101DA6F000167EC30
:1026600004F0010E9A6F070E846F010E866F836F60
:102670007CD083530EE16D530CE16E2D0AD085534F
:1026800008E1862D06D0080E846F010E876F836FD8
:102690006CD083530EE16D2D0CD06E2D0AD0855376
:1026A00008E1862D06D0090E846F876B010E836FBB
:1026B0005CD083530DE16D2D0BD06E5309E1855332
:1026C00007E1862D05D00A0E846F010E836F4DD071
:1026D00083532AE16D5328E16E5326E1875324E1A9
:1026E000855322E1862D20D0080E0101DB6F040EF8
:1026F000DC6F00013EEC04F0AE0EF66E030EF76EDA
:1027000029EC05F089510A0807E19A6B0B0E846FDA
:10271000866B010E836F07D09A6B0C0E846F866BED
:10272000876B010E836F21D083531FE16D531DE131
:102730006E531BE1872D19D0855317E1862D15D0D7
:10274000080E0101DB6F040EDC6F00013EEC04F0AB
:10275000B00EF66E030EF76E29EC05F09A6B0C0EB8
:10276000846F866B876B010E836F12008451895DC5
:1027700004E084C089F0010E886F882D1ED0010E00
:10278000845DF40F18E20C0FDEEF13F014D02D521D
:1027900003E1010E2A6E01D02D6A21DC0CD01FDC72
:1027A0000AD009D02A5203E1010E2D6E01D02A6A07
:1027B00016DC01D014DC886B836B1200E824F76A06
:1027C000F736D70FF66E270EF7220A00F550FA6E8D
:1027D0000800F550F96E8C27B627B627B6278E2746
:1027E0009E27A227B627B627B627A427B427938803
:1027F000556A81B8552A552C0CD05E6A5D6A696BA2
:102800009B6BA26BA16B9E5303E094968B969E6B81
:102810002DD05E5203E15D50040802E2010E696FA3
:1028200069516F5D23E069C06FF0010E7A6F050E8C
:102830000101DB6F020EDC6F00013EEC04F0310E93
:102840000101DA6F000167EC04F03A0E0101DA6F62
:10285000000167EC04F06FC0D0F1180E0101D16FD8
:10286000000128EC08F0ACEC0EF077DC9588566A95
:1028700083B8562A562C0ED094988B88606B5F6A6A
:102880006A6B9B6BA26BA16B9E5303E094968B9635
:102890009E6B34D094988B98605303E15F5004088A
:1028A00002E2010E6A6F6A51705D28E06AC070F042
:1028B000010E7A6F0101DB6F020EDC6F00013EEC4E
:1028C00004F0320E0101DA6F000167EC04F03A0EF9
:1028D0000101DA6F000167EC04F070C0D0F1180E4E
:1028E0000101D16F000128EC08F0200E0101DA6F20
:1028F000000167EC04F0ACEC0EF02FDC9384576A17
:1029000081B4572A572C0CD0626B616B6B6B9C6B3C
:10291000A46BA36B9F5303E094968B969F6B2CD074
:10292000625303E16151040802E2010E6B6F6B51C7
:10293000715D22E06BC071F0010E816F050E010127
:10294000DB6F030EDC6F00013EEC04F0330E01017F
:10295000DA6F000167EC04F03A0E0101DA6F000152
:1029600067EC04F071C0D0F1180E0101D16F0001C5
:1029700028EC08F033DC75DD9386586A81B6582A56
:10298000582C0ED094988B88646B636B6C6B9C6B2B
:10299000A46BA36B9F5303E094968B969F6B34D0EC
:1029A00094988B98645303E16351040802E2010E8A
:1029B0006C6F6C51725D28E06CC072F0010E816F1B
:1029C0000101DB6F030EDC6F00013EEC04F0340EFE
:1029D0000101DA6F000167EC04F03A0E0101DA6FD1
:1029E000000167EC04F072C0D0F1180E0101D16F44
:1029F000000128EC08F0200E0101DA6F000167ECFD
:102A000004F0EEEC10F02DDD9380596A81B0592A64
:102A1000592C0CD0666B656B6D6B9D6BA66BA56BB3
:102A2000A05303E094968B96A06B2CD0665303E1E1
:102A30006551040802E2010E6D6F6D51735D22E075
:102A40006DC073F0010E886F050E0101DB6F040E7F
:102A5000DC6F00013EEC04F0350E0101DA6F00017D
:102A600067EC04F03A0E0101DA6F000167EC04F044
:102A700073C0D0F1180E0101D16F000128EC08F0ED
:102A800031DD74DE93825A6A81B25A2A5A2C0ED0F2
:102A900094988B88686B676B6E6B9D6BA66BA56B50
:102AA000A05303E094968B96A06B33D094988B98A8
:102AB000685303E16751040802E2010E6E6F6E5124
:102AC000745D27E06EC074F0010E886F0101DB6F4A
:102AD000040EDC6F00013EEC04F0360E0101DA6FEB
:102AE000000167EC04F03A0E0101DA6F000167ECB7
:102AF00004F074C0D0F1180E0101D16F000128EC70
:102B000008F0200E0101DA6F000167EC04F0EADC46
:102B10002DDE692D08D06A2D06D09B5304E1010EED
:102B20009B6FA26BA16B6B2D08D06C2D06D09C53B4
:102B300004E1010E9C6FA46BA36B6D2D08D06E2D6C
:102B400006D09D5304E1010E9D6FA66BA56BD1EFDE
:102B500019F0F86AD09E078EFE0E006E060E016E0A
:102B6000020EE96E000EEA6EEE6A002EFDD7012E0F
:102B7000FBD71F6AB886080EAF6E020EB06EA60EA7
:102B8000AC6E900EAB6E206A94928B82436A456A5B
:102B9000526A536A546A556A566A576A586A596A39
:102BA0005A6A5B6A5C6A5E6A5D6A606B5F6A626BE6
:102BB000616B646B636B666B656B686B676B756B86
:102BC000766B776B786B796B7A6B7B6B7C6B7D6BE1
:102BD0007E6B7F6B806B816B826B836B846B856B91
:102BE000866B876B886B896B8B6B8A6B8D6B8C6B41
:102BF0008F6B8E6B916B906B936B926B956B946BF1
:102C0000986B996B9A6BAD6BAE6BB06BAF6BB16B36
:102C1000B26BB36BB46BF06BF16BC150C00B0F09AF
:102C2000C16E070EB46E55D00200190000050108F0
:102C300056352E303105C0206E800D00424F525265
:102C400041525F414C4C0D004752414241525F445A
:102C500041540D004C4545524355454E54410D00DD
:102C6000534F4C4943495441444F0D005041534147
:102C70004A45524F533A0D0053455249414C544531
:102C800053540D0053455249414C5F544F4B0D0076
:102C900053554249454E444F43320D0053494E4629
:102CA000554E43494F4E0D000AC02002800D0016BC
:102CB00000F20801140120012C01380144015001E7
:102CC0005C0168017401800105018C56312E3000D1
:102CD0000000000EF86E2C0EF76E280EF66E09003E
:102CE000F550006E000A13E00900F550016EE8BED1
:102CF00005D00F0BEA6E0900F5CFE9FF01BC090012
:102D000001AC0900F5CFEEFF004EE9D7F9D7F86A1C
:102D1000C150C00B0F09C16EC29068EF02F0A2EF64
:102D200002F0B50ECD6E9D80E70ECF6E960ECE6E84
:102D3000F298C00EF21294948B9494948B940C0E8F
:102D4000BD6E000E0409CA6E830ECB6E450EBE6EBC
:102D5000BD50CF0B3009BD6EF2CFD0F1F29E640EA4
:102D6000A96EA69CA69EA680A8500101D0BFF28E97
:102D7000406E402C01D019D0F250006EF29E640ECD
:102D8000A96E010EA86EA69CA69EA6840F01550EE4
:102D9000A76EAA0EA76EA682A6B2FED7A694005072
:102DA000F212000195EC06F001010001CBEF06F0F4
:102DB000F8EF06F05A6A5AC059F059C058F058C096
:102DC00057F057C056F056C055F0A66BA56BA6C07D
:102DD000A4F0A5C0A3F0A4C0A2F0A3C0A1F0A06B72
:102DE000A0C09FF09FC09EF0AA6BA96B958483A49E
:102DF00005D0010E456E1D0E226E03D0456A0F0EE2
:102E0000226E39EC05F00101D56B090ED46F00017B
:102E1000C1EC03F001C052F00101D56B0A0ED46F72
:102E20000001C1EC03F001C053F00101D56B0B0EA2
:102E3000D46F0001C1EC03F001C054F0958601018C
:102E4000CF6B83B6CF2B436A466A3D6A3C6A9D8A44
:102E5000D1800001686B676B68C066F067C065F081
:102E600066C064F065C063F064C062F063C061F086
:102E700062C060F061C05FF060C05EF05FC05DF096
:102E8000956B946B95C093F094C092F0236A36EFE3
:102E900007F0246A94988B98376A366A37C035F001
:102EA00036C034F0AB6B96908D90010EAE6FF06B28
:102EB000AD2D03D0C00EF212AD6B9586000E83B619
:102EC000010E0101CF5D24E0320EDB6F00010CEC3E
:102ED00002F09586000E83B6010E0101CF5D18E069
:102EE0009586CF6B83B6CF2B452C12D0CF5310E1F4
:102EF000EA0EF66E000EF76E000125EC07F08C0E60
:102F0000F66E020EF76E29EC05F095EC06F0010165
:102F1000968284A24FD00001AE2D01D002D00101D3
:102F200049D096908D80B06BAF6BAE6B949A8B8AC4
:102F3000000E82A0010E010805E1B05303E1AF517C
:102F4000C70803E2010EAE6FF3D752EF07F001C0DE
:102F500091F1010191513F082DE1949A8B9A010E54
:102F6000436E0001686B676B68C066F067C065F010
:102F700066C064F065C063F064C062F063C061F075
:102F800062C060F061C05FF060C05EF05FC05DF085
:102F9000F16FEA6E910EE96E000E6DEC00F00A0022
:102FA0000900F550EE6E0009FBE196908D90010E40
:102FB000AE6F0101432CDED0010ED16F910ED06FA8
:102FC0000001CBEF07F001C0F0F0090E0101DB6F4B
:102FD000010EDC6F00013EEC04F0F0C0D0F1180EE1
:102FE0000101D16F000128EC08F0200E0101DA6F19
:102FF000000167EC04F0F051010A10E0030A24E03C
:10300000010A25E0070A42E0010A43E0030A55E00D
:10301000010A6BE00F0AD8B47AD08DD095EC06F097
:10302000452C06D0980EF66E020EF76E25EC07F0D2
:10303000F12D09D0452C07D0F16BA40EF66E020ECF
:10304000F76EB1EC08F085D0C1EC08F082D0452CC9
:1030500006D0B00EF66E020EF76EB1EC08F0040E5C
:103060000101D06FFA0EDB6F00010CEC02F00101E0
:10307000D02FF8D7000195EC06F0452C06D0BC0EF9
:10308000F66E020EF76E25EC07F063D0CDEC08F07B
:1030900060D0466A2CEF0BF0010E246E090E010180
:1030A000DB6F040EDC6F00013EEC04F0C80EF66E20
:1030B000020EF76E29EC05F04CD0010EAB6FAC6B35
:1030C000090E0101DB6F030EDC6F00013EEC04F022
:1030D000CE0EF66E020EF76E29EC05F0D40EF66EEB
:1030E000020EF76E25EC07F034D0010EAB6FAC6B1F
:1030F000090E0101DB6F040EDC6F00013EEC04F0F1
:10310000E00EF66E020EF76E29EC05F022D0010EED
:10311000AB6FAC6B090E0101DB6F040EDC6F0001BD
:103120003EEC04F064EC0CF0E60EF66E020EF76E68
:1031300029EC05F00ED0090E0101DB6F020EDC6FE9
:1031400000013EEC04F0EC0EF66E020EF76E29EC78
:1031500005F0F06B010EEA6E910EE96E006A026AEC
:10316000200E016EF8EC08F03F6A3E6A010E476ED1
:10317000436A01010001AA5303E1A951B30804E223
:10318000455202E0C1EC08F0AB532EE0AC51090807
:103190002BE2AB6B090E0101DB6F010EDC6F00014E
:1031A0003EEC04F0F00EF66E020EF76E29EC05F020
:1031B000090E0101DB6F030EDC6F00013EEC04F031
:1031C000F60EF66E020EF76E29EC05F0090E0101FF
:1031D000DB6F040EDC6F00013EEC04F0FC0EF66EBB
:1031E000020EF76E29EC05F046520CE04F5006082F
:1031F00009E2FF0A03E14E50CF0804E2455202E023
:1032000026EF0DF0245202E0D1EF0DF09B5336E093
:10321000A251000833E2FF0A03E1A151F3082EE2B4
:103220009E532CE19B6B9E5327E19F5325E1A053B6
:1032300023E10A0E0101DB6F010EDC6F00013EECA1
:1032400004F0020EF66E030EF76E29EC05F0522A1A
:103250000101D56B090ED46F52C0D6F10001E1EC2B
:1032600002F0452C05D0435203E1C1EC08F004D034
:10327000435202E1CDEC08F0010E9E6F9C5336E004
:10328000A451000833E2FF0A03E1A351F3082EE240
:103290009F532CE19C6B9E5327E19F5325E1A05344
:1032A00023E10A0E0101DB6F010EDC6F00013EEC31
:1032B00004F0060EF66E030EF76E29EC05F0532AA5
:1032C0000101D56B0A0ED46F53C0D6F10001E1ECB9
:1032D00002F0452C05D0435203E1C1EC08F004D0C4
:1032E000435202E1CDEC08F0010E9F6F9D5336E092
:1032F000A651000833E2FF0A03E1A551F3082EE2CC
:10330000A0532CE19D6B9E5327E19F5325E1A053D1
:1033100023E10A0E0101DB6F010EDC6F00013EECC0
:1033200004F00A0EF66E030EF76E29EC05F0542A2F
:103330000101D56B0B0ED46F54C0D6F10001E1EC46
:1033400002F0452C05D0435203E1C1EC08F004D053
:10335000435202E1CDEC08F0010EA06F9D5312E143
:103360009C5310E19B530EE10A0E0101DB6F010E2D
:10337000DC6F00013EEC04F00E0EF66E030EF76EED
:1033800029EC05F03F5002080AE2FF0A03E13E5033
:10339000830805E2475203E039EC05F0476AF7EF8E
:1033A00013F0B1530BE0B251630808E2B16B010EA8
:1033B000B36FB26B949A8B8A5BEC0CF0B251090834
:1033C0000BE2B35309E0949A8B9AB407B45302E02A
:0E33D000010EB16FB36BB26B04006AD503003F
:020000040030CA
:0E00000000C21E180086910000800FE00F4025
:00000001FF
;PIC18F4580
;CRC=5ED7  CREATED="16-may.-22 08:52"
