:04000000A9EF15F05F
:08000800046ED8CF05F0E0CF33
:1000100006F00001E9CF0CF0EACF07F0E1CF08F0DD
:10002000E2CF09F0D9CF0AF0DACF0BF0F3CF12F01C
:10003000F4CF13F0FACF14F0F5CF15F0F6CF16F099
:10004000F7CF17F000C00EF001C00FF002C010F0A3
:1000500003C011F09DAA30EF00F09EBA19EF01F035
:100060009DA036EF00F09EB085EF00F0A0A23CEF1F
:1000700000F0A1B2E0EF00F00EC000F00FC001F000
:1000800010C002F011C003F00CC0E9FF07C0EAFF86
:10009000078E08C0E1FF09C0E2FF0AC0D9FF0BC00C
:1000A000DAFF12C0F3FF13C0F4FF14C0FAFF15C04B
:1000B000F5FF16C0F6FF17C0F7FF045006C0E0FFBB
:1000C00005C0D8FF1000F76AD60FF66E000EF722B3
:1000D0000900F5501200280C0106F76AEA0FF66EC7
:1000E000000EF7220900F5501200424F52524152C1
:1000F0005F414C4C0D00F76A060FF66E010EF722B9
:100100000900F55012003A2F00003E2AD8B43F2AC9
:10011000B22BA72BD8B4A82BA85303E1A75163088F
:1001200006E2A86BA76BA92BD8B4AA2BAC2B93889B
:10013000556A81B8552A555203E15D2AD8B45E2A22
:100140009588566A83B8562A565203E15F2AD8B476
:10015000602B9384576A81B4572A575203E1612B6D
:10016000D8B4622B9386586A81B6582A585203E154
:10017000632BD8B4642B9380596A81B0592A5952A1
:1001800003E1652BD8B4662B93825A6A81B25A2A4E
:100190005A5203E1672BD8B4682BA12BD8B4A22BF9
:1001A000A32BD8B4A42BA52BD8B4A62B4E2AD8B4F5
:1001B0004F2AE70ECF6E960ECE6E9E903CEF00F06B
:1001C000AF2BD8B4B02BFE0EB36E0C0EB26EA19254
:1001D0003CEF00F0030E0101EA5F0AE3010EEA6E54
:1001E000EA0EE96EEF5004E001D000D0EF2EFDD70B
:1001F000000104EF01F0200E0101E86F020EE96F2B
:100200009B0EEA6F0001E6D70101E92FF9D7E82F2D
:1002100003D01F6A016A0AD09EAAF0D7AB501F6EA6
:10022000AE50016E1FA202D0AB98AB8800012DEF3B
:1002300001F0F29CF29EF2BEFDD7416A41501E08C9
:100240001FE3036A4150920FE96E010E0320EA6E2C
:10025000EACFE7F1E9CFE6F1CED7E7C1EAFFE6C1A1
:10026000E9FF01C0EFFF412A036A4150920FE96E96
:10027000010E0320EA6EEF500D0801E101D0DED738
:10028000010E436EAD6F9E9A3CEF00F00C424F5250
:100290005241525F414C4C00424F525241525F41D9
:1002A0004C4C0D0052455345545F4F4B0D0A000016
:1002B00052455345545F4F4B0D0A0000424F525276
:1002C00041525F414C4C0D0043324F4B00004331D3
:1002D0004F4B000053455249414C5F544F4B0D006A
:1002E00043324F4B0000537562320000633D3000D3
:1002F000202020200000202020200000202020207E
:100300000000424C0000424C0000424C0000202003
:100310000000534F4C4943495441444F0D00504154
:1003200053414A45524F533A0D0053323A254C64DB
:10033000200042323A254C6420004143432B3031A7
:100340003A2530344C752C2530344C752C253034FE
:100350004C752C2530334C752C2530334C752C25A1
:100360003032752C0D0A00004143432B30313A25C1
:1003700030344C752C2530344C752C444553432C6B
:100380002530334C752C3030302C253032752C0D07
:100390000A004445534300000C00200020002000C8
:1003A000200020002000200020002000200020004D
:1003B00020006D656D6F72793A25730D0000533121
:1003C0003A254C64200042313A254C6420005332D7
:1003D0003A254C64200042323A254C6420005331C7
:1003E0003A202020200042313A20202020005332A1
:1003F0003A254C64200042323A254C642000534593
:100400005249414C544553540D0A0000535542493A
:10041000454E444F43320000010EEA6EDC0EE96E99
:10042000EF500DE0060E016E006A002EFED7012E81
:10043000FBD77B0E006E002EFED7EF2EF3D71200F7
:100440000101E3B102D0899801D089889298E3B381
:1004500002D0899401D089849294E3B502D0899224
:1004600001D089829292E3B702D0899001D089802D
:100470009290000092968986020E006E002EFED7A2
:1004800000D00000929689960001120096948D94F7
:10049000630E006E002EFED700D00101E05303E092
:1004A00096948D8402D096948D94000092968996AD
:1004B000E139E26F0F0EE217E2C1E3F10001C0DFA4
:1004C0000101E1510F0BE26FE36F0001B9DF120090
:1004D000010E216E96948D9492968996230E0101B9
:1004E000DC6F000199DF0101D16BD15102080CE3EF
:1004F000030EE36F0001A4DF050E0101DC6F0001B4
:100500008BDF0101D12BF1D7020EE36F000198DFE1
:100510000101D16BD151030812E3036AD1510001EB
:10052000D2DD0101D26FE06BE16F0001AFDF050E9C
:100530000101DC6F000170DF0101D12BEBD700015D
:100540008FEF16F0958E958C91EF16F0080E016ED8
:10055000050E006E002EFED78C9E959E060E006E38
:10056000002EFED70101DB378C9CD8B0958CD8A02B
:10057000959C958E83AEFED7012E01D002D000014E
:10058000E7D7050E006E002EFED78C9E959E0000CC
:10059000958C060E006E002EFED7060E006E002E05
:1005A000FED7958E83AEFED7016A060E006E002E32
:1005B000FED783BC01808C9E959E8C9C959C0001EF
:1005C0001200958C050E006E002EFED7958E060E3D
:1005D000006E002EFED78C9C959C050E006E002EA2
:1005E000FED78C9E959EA00E0101DB6F0001AEDF51
:1005F000D6C1D9F10101DA6BD6C1DBF10001A6DF6A
:10060000D5C1DBF1A3DFD7C1DBF1A0DF959C0000F2
:10061000958E83AEFED7050E006E002EFED700D05D
:100620000000958C050E006E002EFED7958C050EF1
:10063000006E002EFED7958E060E006E002EFED7A1
:100640008C9C959C050E006E002EFED78C9E959E70
:10065000A00E0101DB6F000179DF01500101D8918B
:1006600001B0D881D8A11ED0958C050E006E002E49
:10067000FED7958E060E006E002EFED783AEFED7F7
:100680008C9C959C050E006E002EFED78C9E959E30
:10069000A00EDB6F00015ADF01500101D89101B0BB
:1006A000D881E0D7959C0000958E83AEFED7050ECD
:1006B000006E002EFED700D00000958C050E006E57
:1006C000002EFED700011200F29CF29EF2BEFDD772
:1006D0000101D16BD26BD46BD36BD46BD36BD26B68
:1006E000D16B3DC0D4F13CC0D3F1D3C1D2F1D4C160
:1006F000D1F1D66B140ED56FD1C1D7F1000161DFF6
:100700000101D66B150ED56FD2C1D7F1000159DFAB
:10071000C00EF2121200080E0101D96F00C0DAF10A
:10072000958C060E006E002EFED7958E83AEFED7FA
:1007300083BCD88083ACD8900136050E006E002EA5
:10074000FED7959E8C9ED92FEBD7958C060E006E0A
:10075000002EFED78C9CDA51D8A4959C0000958E73
:1007600083AEFED7050E006E002EFED78C9E959EA2
:10077000060E006E002EFED78C9C959C0001FEEFAD
:1007800003F0958C050E006E002EFED7958E060E9A
:10079000006E002EFED78C9C959C050E006E002EE0
:1007A000FED78C9E959EA00E0101DB6F0001CEDE70
:1007B000D6C1D8F10101D96BD6C1DBF10001C6DE8B
:1007C000D5C1DBF1C3DE958C050E006E002EFED781
:1007D000958E060E006E002EFED783AEFED78C9C43
:1007E000959C050E006E002EFED78C9E959EA10E48
:1007F0000101DB6F0001AADE006A8DD701C0D7F1CD
:10080000959C0000958E83AEFED7050E006E002EDF
:10081000FED700D00000958C050E006E002EFED78E
:100820000101D7C101F000011200F29CF29EF2BE5C
:10083000FDD70101D16BD26BD46BD36BD66B140E89
:10084000D56F00019EDF01C0D1F10101D66B150EFD
:10085000D56F000196DF01C0D2F10101D46BD1C187
:10086000D3F1D3C1D4F1D36BD251D313D4C13DF062
:10087000D3C13CF0C00EF212000112000101DD51A3
:10088000010A000107E0030A08E0010A0AE0070A7A
:100890000CE010D00101DE6B0FD0400E0101DE6FC5
:1008A0000BD0140E0101DE6F07D0540E0101DE6F74
:1008B00003D000010101DE6B010EDC5DDE27DE519D
:1008C0008009DF6FE06BE16F0001E0DD12000101E4
:1008D000DB510C0A000105E0060A11E0020A18E0EB
:1008E0001ED00101E06B010EE16F0001CFDD010EB2
:1008F000216E020E0101DC6F00018EDD17D0212A6E
:10090000010E0101DC6F21C0DDF10001B7DF0ED067
:100910000101E06B100EE16F0001B8DD07D0010EA0
:100920000101E06FDBC1E1F10001B0DD120009005F
:10093000F6CFD3F1F7CFD4F1F5CFDBF1C8DFD3C1D8
:10094000F6FFD4C1F7FF0101D22F01D002D0000180
:10095000EED700011200EACFDAF1E9CFD9F10101B7
:10096000D3AF08D0D98FD9A9D92BD21FD31FD22B5F
:10097000D8B4D32BD339F009D56FD527E20FD66F72
:10098000320FD86FD3510F0BD627D627D827E90FB0
:10099000D76FD727D727D2390F0BD727D827D737E5
:1009A000D837D81FD837D2510F0BD827D537070ED5
:1009B000D46F0A0ED707D827FDE3D607D727FDE364
:1009C000D507D627FDE3D407D527FDE3010EEA6E50
:1009D000D40EE96E070ED915D99DED52D91507E150
:1009E000D9B9EE52D9B903D0200E006E20D0E92635
:1009F000000EEA22E950D80803E1EA2C01D0D98D93
:100A0000EF50006E08E1D9BD06D0D9B91DD0D9B7D5
:100A100002D0200E0BD0D9AF06D02D0E006EED50B7
:100A2000D99DD99F04D0D987D999300E0026EACF15
:100A3000D3F1E9CFD2F100C0DBF1000148DFD3C12F
:100A4000EAFFD2C1E9FF0101EE50D9ADD3D70001D1
:100A500012000900F5520CE0F6CFD1F1F7CFD2F138
:100A6000F5CFDBF134DFD1C1F6FFD2C1F7FFF1D70B
:100A70001200010E0101DC6FDD6F0001FFDE455247
:100A8000D8B48FD0310E0101DB6F000120DF200EC2
:100A90000101DB6F00011BDF8CC1DBF118DF8DC1B1
:100AA000DBF115DF8EC1DBF112DF8FC1DBF10FDF70
:100AB00090C1DBF10CDF200E0101DB6F000107DFCD
:100AC0000E0E0101DC6F010EDD6F0001D7DEBE0EE0
:100AD000F66E030EF76E030E0101D26F000127DFE1
:100AE000100EE96E8BC0D3F18AC0D2F134DF200E34
:100AF0000101DB6F0001EBDE0E0E0101DC6F020E67
:100B0000DD6F0001BBDEC60EF66E030EF76E030E40
:100B10000101D26F00010BDF100EE96E8DC0D3F121
:100B20008CC0D2F118DF200E0101DB6F0001CFDE97
:100B30000E0E0101DC6F030EDD6F00019FDECE0E95
:100B4000F66E030EF76E030E0101D26F0001EFDEA9
:100B5000100EE96E35C0D3F134C0D2F1FCDE200EA8
:100B60000101DB6F0001B3DE0E0E0101DC6F040E2C
:100B7000DD6F000183DED60EF66E030EF76E030EF8
:100B80000101D26F0001D3DE100EE96E37C0D3F140
:100B900036C0D2F1E0DE200E0101DB6F000197DEEE
:100BA0006ED0320E0101DB6F000191DE200E0101DB
:100BB000DB6F00018CDE8CC1DBF189DE8DC1DBF1E6
:100BC00086DE8EC1DBF183DE8FC1DBF180DE90C17A
:100BD000DBF17DDE200E0101DB6F000178DE0E0E01
:100BE0000101DC6F010EDD6F000148DEDE0EF66EE6
:100BF000030EF76E2EDF0E0E0101DC6F020EDD6FAD
:100C000000013CDEE60EF66E030EF76E22DF0E0EDE
:100C10000101DC6F030EDD6F000130DEEE0EF66EBB
:100C2000030EF76E030E0101D26F000180DE100E7D
:100C3000E96E8BC0D3F18AC0D2F18DDE200E0101A6
:100C4000DB6F000144DE0E0E0101DC6F040EDD6F70
:100C5000000114DEF60EF66E030EF76E030E0101B0
:100C6000D26F000164DE100EE96E8DC0D3F18CC02E
:100C7000D2F171DE200E0101DB6F000128DE1200CF
:100C80008C518A250101D16F00018D518B21010109
:100C9000D26FD890D23100018F6F0101D1310001A4
:100CA0008E6FE7DE5B6A5C6A2A6A2AC029F029C077
:100CB00028F02D6A2DC02CF02CC02BF01200F29CD5
:100CC000F29EF2BEFDD70101D66B020ED56F8AC02F
:100CD000D7F1000176DC8BC0D1F10101D26BD66B6C
:100CE000010ED56F8BC0D7F100016BDCC00EF21284
:100CF000C7DF1200F29CF29EF2BEFDD70101D66B57
:100D0000040ED56F8CC0D7F100015BDC8DC0D1F132
:100D10000101D26BD66B030ED56F8DC0D7F10001E8
:100D200050DCC00EF212ACDF1200936B926B956B2D
:100D3000946B3D6A3C6AC8DC78DD8F6B8E6B916B7F
:100D4000906B8D6B8C6B8B6B8A6BB9DFD3DF4D6ACD
:100D50004C6A526A536A546A0101D66B090ED56F08
:100D600052C0D7F100012DDC0101D66B0A0ED56F00
:100D700053C0D7F1000125DC0101D66B0B0ED56FF6
:100D800054C0D7F100011DDC980EF66E030EF76E0D
:100D900060DE6FDE1200F29CF29EF2BEFDD7010112
:100DA000D16BD26BD46BD36BD66B010ED56F0001B8
:100DB000E8DC01C0D1F10101D66B020ED56F000154
:100DC000E0DC01C0D2F10101D46BD1C1D3F1D3C1B8
:100DD000D6F1D56BD551D211D36FD6C1D4F1D4C1D0
:100DE0008BF0D3C18AF0C00EF2120001D8EF16F0DA
:100DF000F29CF29EF2BEFDD70101D16BD26BD46B97
:100E0000D36BD66B030ED56F0001BBDC01C0D1F1F3
:100E10000101D66B040ED56F0001B3DC01C0D2F125
:100E20000101D46BD1C1D3F1D3C1D6F1D56BD5516A
:100E3000D211D36FD6C1D4F1D4C18DF0D3C18CF00F
:100E4000C00EF2120001DAEF16F00900F5520DE0C3
:100E5000F6CFD3F1F7CFD4F1F5509EA8FED7AD6E03
:100E6000D3C1F6FFD4C1F7FFF0D71200D0500F0B5B
:100E7000D0A8000ED080D082D088D886D888070A23
:100E800007E0080A06E0010A0AE0020A09E008D0C1
:100E900007D0FE0EF66E030EF76ED7DF01D000D03E
:100EA00049EF17F0100E0101D26F010ED16F208CA7
:100EB0009480100E006E002EFED70000D12F05D0BA
:100EC000D22F03D0206A016A24D082B0F2D7080E54
:100ED000006ED36BF2CFD4F1F29E008E0ED0009E46
:100EE0000CD0D89082B0D880D333008C06D0009C30
:100EF000002EF7D7D351016E0CD0A70E00BE2D0ED9
:100F0000016E012EFED7000000BEE9D700BCEFD76E
:100F1000E8D7D4BFF28E0001A9EF17F00101D7C1C5
:100F2000E9FFD8C1EAFFEFCFDBF1DAC103F0D9C1A5
:100F3000E9FFDAC1EAFFEF50DB5D15E1D8C103F04C
:100F4000D7C1E9FF03C0EAFFEF5203E1000E016ED3
:100F50001FD0D8C103F0D751D72BD8B4D82BD92B59
:100F6000D8B4DA2BDCD7D8C103F0D7C1E9FFD8C198
:100F7000EAFFEFCFDBF1DAC103F0D9C1E9FFDAC153
:100F8000EAFFEF50DB5D02E2FF0E01D0010E016EC1
:100F90000001EBEF07F00101D36BD3510A0823E303
:100FA000036AD3C102F0D890023603360250F20F22
:100FB000E96E000E0320EA6EECCFD6F1ED52EFCFD2
:100FC000D5F1D6C1D8F1D5C1D7F1D2C1DAF1D1C1AD
:100FD000D9F10001A3D701C0D4F10101D45301E13B
:100FE00002D0D32BDAD79351410817E1945153081B
:100FF00014E19551410811E196514A080EE19751CB
:1010000045080BE19851520808E199514F0805E154
:101010009A51530802E1050ED36FD3C101F00001CC
:10102000E5EF17F00101D851016AD75D03E2D7C19E
:1010300000F00CD0006A080ED96FD7370036D851AF
:10104000005CD8B0006E0136D92FF7D7000112002E
:10105000200E0101D2A9300ED36FD1C100F0D1AF63
:1010600008D0001E002A00C0D1F12D0ED36FD28F00
:10107000D2810150D1C1D7F1640ED86F0001D2DF07
:1010800000C0D1F1300E01240101D46FD1C1D7F1DC
:101090000A0ED86F0001C6DF300E00240101D66FA2
:1010A000300E0124D56FD3C100F0300ED45D04E0C2
:1010B000D283D2BFD28512D0D3C1D4F1200ED36F48
:1010C000300ED55D04E0D281D2BFD28307D0D8A440
:1010D000D28104E1D4C1D5F1200ED46FD2B505D0B0
:1010E000D2B308D0D2B10BD00FD0D3C1DBF1000105
:1010F00067EC04F0D4C1DBF1000167EC04F0D5C16A
:10110000DBF1000167EC04F0D6C1DBF1000167EC14
:1011100004F01200F2CF03F0F29E94928B92080E2C
:10112000016E00D00000018E10D0019E0101DA3363
:101130000001D8B08B82D8A08B92018C06D0019C84
:10114000012EF4D700D000008B82A70EE96EE92EA5
:10115000FED700D001BEE9D701BCF1D703BEF28EA5
:1011600012000900F5520CE0F6CFD1F1F7CFD2F121
:10117000F5CFDAF1CFDFD1C1F6FFD2C1F7FFF1D75A
:101180001200120EF66E030EF76E5FDEAA6BA96BED
:10119000010E466E4F6A4E6A12008C518A2501017B
:1011A000D36F00018D518B210101D46FD890D431C0
:1011B000D26FD331D16F5350522454244C6E4D6AA8
:1011C000010E0001AB6FAC6B090E0101DC6F030E69
:1011D000DD6F00013EEC04F0AB0E0101DB6F00019E
:1011E00067EC04F01E0EF66E030EF76E2EDE120094
:1011F000016603D0026602D007D0022A00C0EEFFCB
:10120000012EFCD7022EFAD71200DBC1DFF1DAC1C2
:10121000DEF1DFC103F00101DEC1E9FFDFC1EAFF5A
:10122000EF5230E0DDC1E1F1DCC1E0F1E1C103F0FA
:10123000E0C1E9FFE1C1EAFFEF520AE1DA51DE5D08
:10124000006EDB51DF59036E00C001F023D010D0D7
:10125000DEC1E9FFDFC1EAFFEFCFE2F1E1C103F058
:10126000E0C1E9FFE1C1EAFFEF50E25D01E104D036
:10127000E02BD8B4E12BDAD7DE2BD8B4DF2B00017A
:10128000C8D70101DA51DE5D006EDB51DF59036E14
:1012900000C001F00001A2EF09F0DBC1DFF1DAC10B
:1012A000DEF1DFC103F00101DEC1E9FFDFC1EAFFCA
:1012B000EF522AE0DDC1E1F1DCC1E0F1E1C103F070
:1012C000E0C1E9FFE1C1EAFFEF5218E0DEC1E9FF4A
:1012D000DFC1EAFFEFCFE2F1E1C103F0E0C1E9FFD6
:1012E000E1C1EAFFEF50E25D05E1DEC101F0DFC1DF
:1012F00002F00DD0E02BD8B4E12BE0D7DE2BD8B430
:10130000DF2B0001CED70101000E016E026E00013D
:10131000C3EF09F00101D251D31104E0D3C103F0AE
:10132000D25103D01AC003F01950D66F03C0D7F1C1
:10133000D7C1DBF1D6C1DAF1D5C1DDF1D4C1DCF121
:10134000000163D701500101D627000ED723D7C172
:1013500003F0D6C1E9FFD7C1EAFFEF520AE119C095
:10136000E9FF1AC0EAFF200EEF6E000E016E026E5A
:1013700027D0D7C1DBF1D6C1DAF1D5C1DDF1D4C1B7
:10138000DCF100018AD702C0D9F101C0D8F1D9C17E
:1013900003F00101D8C1E9FFD9C1EAFFEF5208E02B
:1013A000D8C1E9FFD9C1EAFFEF6AD82BD8B4D92B4D
:1013B000D9C11AF0D8C119F0D6C101F0D7C102F0D5
:1013C000000112000101DA6BD86B0A0ED96FD76BDE
:1013D000D66BD56BD46BD251D31105E1006A016A8B
:1013E000026A036A37D1DA51DA2BD225E96E000E90
:1013F000D321EA6EEFCFDBF1DB512D080CE1010EBA
:10140000D86FDA51DA2BD225E96E000ED321EA6EBD
:10141000EFCFDBF10CD0DB512B0809E1DA51DA2BED
:10142000D225E96E000ED321EA6EEFCFDBF1DB515E
:101430002F08D8B0F7D0DB513908D8A0F3D0DB5152
:1014400030081EE1DA51D225E96E000ED321EA6E92
:10145000EF50780809E0DA51D225E96E000ED32169
:10146000EA6EEF5058080CE1100ED96FDA2BDA5102
:10147000DA2BD225E96E000ED321EA6EEFCFDBF135
:10148000D9510A0843E1DB512F083FE2DB5139080B
:101490003CE3D890D435DD6FD535DE6FD635DF6FC0
:1014A000D735E06FD435006ED535016ED635026E76
:1014B000D735036E00360136023603360036013664
:1014C00002360336F80E0016DD510026DE510122E9
:1014D000DF510222E051032203C0D7F102C0D6F14E
:1014E00001C0D5F100C0D4F1300EDB5DD427000E71
:1014F000D523D623D723DA51DA2BD225E96E000E75
:10150000D321EA6EEFCFDBF1BED78CD0D9511008D2
:10151000D8A488D0DB51600806E2DB517A0803E3E7
:10152000DB51DF0B01D0DB51DB6FDB512F0803E216
:10153000DB51390807E2DB514008D8B073D0DB51EA
:10154000460870E3DB512F082EE2DB5139082BE30C
:10155000D435DD6FD535DE6FD635DF6FD735E06F2B
:10156000DD37DE37DF37E037DD37DE37DF37E037CF
:10157000DD37DE37DF37E037F00EDD17300EDB5DAD
:10158000DD25006E000EDE21016E000EDF21026EF1
:10159000000EE021036ED76F02C0D6F101C0D5F175
:1015A00000C0D4F12AD0D435DD6FD535DE6FD63505
:1015B000DF6FD735E06FDD37DE37DF37E037DD3718
:1015C000DE37DF37E037DD37DE37DF37E037F00E85
:1015D000DD17410EDB5D0A0FDD25006E000EDE21FA
:1015E000016E000EDF21026E000EE021D76F02C0F7
:1015F000D6F101C0D5F100C0D4F1DA51DA2BD225F1
:10160000E96E000ED321EA6EEFCFDBF1DB5160080B
:1016100006E2DB517A0803E3DB51DF0B01D0DB513B
:10162000DB6F83D7D9510A080DE1D82D0BD0D41F19
:10163000D51FD61FD71FD42BD8B4D52BD8B4D62BB3
:10164000D8B4D72BD4C100F0D5C101F0D6C102F077
:10165000D7C103F0000112009D9A396A386A3B6ACB
:101660003A6A2F6A2E6A316A306A976B966B336AD0
:10167000326A916B906B010EEA6EB20EE96E006AEF
:10168000026A050E016EB4DD010EEA6EB70EE96E58
:10169000006A026A050E016EABDD010EEA6EBC0E39
:1016A000E96E006A026A050E016EA2DD010EEA6EA5
:1016B000BC0EE96E006A026A050E016E99DD0A0E23
:1016C000416E426AEA6AB50EE96E000E7BEC00F0EC
:1016D0000A000900F550EE6E0009FBE1010E010160
:1016E000D36F920ED26FD56BB50ED46F000112DEA0
:1016F00002C0B9F001C0B8F00101D16BEA6ABA0EBC
:10170000E96EB9C0E2FFB8C0E1FFE752E6CFEEFFF5
:10171000FCE1D36BD26BD56BB50ED46F0001FADD53
:1017200002C0D3F101C0D2F1EA6AC80EE96E02C06C
:10173000E2FF01C0E1FFE752E6CFEEFFFCE101016D
:10174000D36BD26BD56BB50ED46F0001E3DD02C055
:10175000D3F101C0D2F1EA6AD20EE96E02C0E2FF13
:1017600001C0E1FFE752E6CFEEFFFCE10101D36BE0
:10177000D26BD56BB50ED46F0001CCDD02C0D3F1B6
:1017800001C0D2F1EA6ADC0EE96E02C0E2FF01C0DC
:10179000E1FFE752E6CFEEFFFCE10101D36BD26B34
:1017A000D56BB50ED46F0001B5DD02C0D3F101C019
:1017B000D2F1EA6AE60EE96E02C0E2FF01C0E1FF83
:1017C000E752E6CFEEFFFCE10101D36BD26BD56BA4
:1017D000B50ED46F00019EDD02C0B9F001C0B8F0B3
:1017E0000101D12BD36BC80ED26F0001EBDD01C01C
:1017F00035F000C034F00101D36BD20ED26F00017E
:10180000E1DD01C037F000C036F00101D36BDC0E22
:10181000D26F0001D7DD01C097F000C096F0010142
:10182000D36BE60ED26F0001CDDD01C033F000C0F6
:1018300032F00E0E0101DC6F030EDD6F00013EEC95
:1018400004F02A0EF66E030EF76E030E0101D26F3E
:10185000000197EC04F0100EE96E35C0D3F134C0EE
:10186000D2F1ABEC04F0200E0101DB6F000167EC5C
:1018700004F00E0E0101DC6F040EDD6F00013EEC82
:1018800004F0320EF66E030EF76E030E0101D26FF6
:10189000000197EC04F0100EE96E37C0D3F136C0AA
:1018A000D2F1ABEC04F0200E0101DB6F000167EC1C
:1018B00004F04EEF18F0455206E10C0EF66E040EE1
:1018C000F76E25EC07F01200949A8B8AF4DFB26B66
:1018D000010EB36FB42B12000900F6CFD2F1F7CF8F
:1018E000D3F1F5CFDAF116DCD2C1F6FFD3C1F7FFA1
:1018F0000101D12F01D002D00001EED7000112006A
:10190000EACFD9F1E9CFD8F10101D239F009D46F8A
:10191000D427E20FD56F320FD76FD2510F0BD527D7
:10192000D527D727E90FD66FD627D627D1390F0B62
:10193000D627D727D637D737D71FD737D1510F0B51
:10194000D727D437070ED36F0A0ED607D727FDE364
:10195000D507D627FDE3D407D527FDE3D307D42742
:10196000FDE3010EEA6ED30EE96E070ED815D89D81
:10197000E926000EEA22E950D70803E1EA2C01D05B
:10198000D88DEF50006E08E1D8BD06D0D8B916D07A
:10199000D8B702D0200E03D0D887D899300E0026B1
:1019A000EACFD2F1E9CFD1F100C0DAF100018AEC3F
:1019B00008F0D2C1EAFFD1C1E9FF0101EE50D8AD74
:1019C000DAD7000112000150D1C1D7F1640E010134
:1019D000D86F000112EC08F000C0D1F10150300EB8
:1019E00008E10101D2A310D0D2B70ED0D2B9200E97
:1019F00004D00101D297D299D281012601C0DAF137
:101A000000018AEC08F00101D1C1D7F10A0ED86FAC
:101A1000000112EC08F000C0D1F10150300E08E1D5
:101A20000101D2B70BD0D2A109D0D2B9200E00014A
:101A3000012601C0DAF18AEC08F00101300ED1274D
:101A4000D1C1DAF100018AEC08F012009D9A5350DE
:101A5000522454244C6E4D6A010EEA6EB20EE96EA9
:101A6000006A026A050E016EF8EC08F0010EEA6EDB
:101A7000B70EE96E006A026A050E016EF8EC08F016
:101A8000010EEA6EBC0EE96E006A026A050E016E76
:101A9000F8EC08F00A0E416E426A8C518A25010169
:101AA000D16F00018D518B210101D26FD890D231BD
:101AB000396ED131386E000115EC04F03C503824F9
:101AC000906F3D503920916F010E236E680EF66EB7
:101AD000030EF76E070E0101D16F0001FDDE090E46
:101AE000E96E91C0D2F190C0D1F10ADF2C0E010154
:101AF000DA6F00018AEC08F0090EE96E39C0D2F104
:101B000038C0D1F1FDDE7A0EF66E030EF76E060ECA
:101B10000101D16F0001E0DE0A0EE96E4DC0D2F185
:101B20004CC0D1F1EDDE850EF66E030EF76E050E9C
:101B30000101D16F0001D0DE23C0D1F1010E0101FE
:101B4000D26F000140DF8E0EF66E030EF76E030EAD
:101B50000101D16F0001C0DE090E0101DC6F030E2F
:101B6000DD6F00013EEC04F0AB0E0101DB6F000104
:101B700067EC04F0090E0101DC6F040EDD6F00015B
:101B80003EEC04F0920EF66E030EF76E29EC05F0B3
:101B9000010EAB6FAC6BAA6BA96B466A9D8A04EF12
:101BA00019F035C02FF034C02EF037C031F036C0F8
:101BB00030F08C518A250101D16F00018D518B21AC
:101BC0000101D26FD890D231396ED131386E305098
:101BD0002E24D16F31502F20D26FD890D231516E38
:101BE000D131506E000115EC04F03250505C0FE121
:101BF0003350515C0CE151C03BF050C03AF03BC057
:101C00003DF03AC03CF064EC03F0236A02D0020ECF
:101C1000236E3A503824906F3B503920916F5350C7
:101C2000522454244C6E4D6A3A0EF66E030EF76E33
:101C3000070E0101D16F00014FDE090EE96E91C060
:101C4000D2F190C0D1F15CDE2C0E0101DA6F0001FF
:101C50008AEC08F0090EE96E39C0D2F138C0D1F132
:101C60004FDE2C0E0101DA6F00018AEC08F0090E3C
:101C7000E96E3BC0D2F13AC0D1F142DE2C0E010137
:101C8000DA6F00018AEC08F00A0EE96E4DC0D2F15D
:101C90004CC0D1F135DE2C0E0101DA6F00018AEC67
:101CA00008F00A0EE96E97C0D2F196C0D1F128DE95
:101CB0002C0E0101DA6F00018AEC08F023C0D1F18B
:101CC000010E0101D26F00017EDE630EF66E030E7F
:101CD000F76E030E0101D16F0001FEDD39EC05F056
:101CE000090E0101DC6F030EDD6F00013EEC04F014
:101CF000AB0E0101DB6F000167EC04F0010EAB6F6E
:101D0000AC6BAA6BA96B246A9D8A08EF19F05B5231
:101D100022E15C5220E1692D03D06B2D01D009D066
:101D2000692D03D06D2D01D004D06B2D04D06D2D05
:101D300002D0010E5B6E6A2D03D06C2D01D009D04C
:101D40006A2D03D06E2D01D004D06C2D04D06E2DE1
:101D500002D0010E5C6E1200755322E1692D20D075
:101D60006A531EE177531CE178531AE15B5203E199
:101D70005C5201E1CCDF080E0101DC6F020EDD6F69
:101D800000013EEC04F07F0E0101DB6F000167EC07
:101D900004F0010E986F766F776F796F756F1ED1B3
:101DA00075530EE1692D0CD06A2D0AD0772D08D01D
:101DB000785306E1030E766F796B010E756F0ED1C5
:101DC00075530DE169530BE16A2D09D0772D07D0CA
:101DD000785305E1040E766F010E756FFFD07553D1
:101DE0002AE1695328E16A5326E1795324E1772DEA
:101DF00022D0785320E1080E0101DC6F020EDD6F66
:101E000000013EEC04F09A0EF66E030EF76E29EC1C
:101E100005F0986B7B51040806E1050E766F776B31
:101E2000010E756F07D0986B060E766F776B796B26
:101E3000010E756FD3D0755320E169531EE16A53CB
:101E40001CE1792D1AD0772D18D0785316E1080EA1
:101E50000101DC6F020EDD6F00013EEC04F09C0E10
:101E6000F66E030EF76E29EC05F0986B060E766F92
:101E7000776B796B010E756FB1D075530EE1692DDB
:101E80000CD06A530AE1772D08D0785306E1020E90
:101E9000766F010E796F756FA1D0755323E1695389
:101EA00021E16A2D1FD077531DE178531BE15B526E
:101EB00003E15C5201E12BDF080E0101DC6F020E31
:101EC000DD6F00013EEC04F07E0E0101DB6F0001CE
:101ED00067EC04F0010E986F070E766F010E786FB5
:101EE000756F7CD075530EE169530CE16A2D0AD0F1
:101EF000775308E1782D06D0080E766F010E796FC2
:101F0000756F6CD075530EE1692D0CD06A2D0AD017
:101F1000775308E1782D06D0090E766F796B010EA4
:101F2000756F5CD075530DE1692D0BD06A5309E1D3
:101F3000775307E1782D05D00A0E766F010E756F85
:101F40004DD075532AE1695328E16A5326E179534C
:101F500024E1775322E1782D20D0080E0101DC6FB7
:101F6000020EDD6F00013EEC04F09E0EF66E030ED5
:101F7000F76E29EC05F07B510A0807E1986B0B0E10
:101F8000766F786B010E756F07D0986B0C0E766FBD
:101F9000786B796B010E756F21D075531FE1695312
:101FA0001DE16A531BE1792D19D0775317E1782D84
:101FB00015D0080E0101DC6F020EDD6F00013EEC52
:101FC00004F0A00EF66E030EF76E29EC05F0986B88
:101FD0000C0E766F786B796B010E756F120069537A
:101FE00036E16A5334E16B5332E16C5330E16D53A7
:101FF0002EE16E532CE1295028242A24256E2C50E2
:102000002B242D24266E2550010803E326500108B9
:102010000FE22550265C07E28A2BD8B48B2B5FECAD
:1020200006F052DC05D08C2BD8B48D2B7AEC06F060
:102030002A6A2AC029F029C028F028C025F02D6A74
:102040002DC02CF02CC02BF02BC026F085D09E5339
:1020500005E19F5303E1A053D8B47ED09F519E2544
:10206000A025276E272C4CD09E5317E06B5314E10C
:102070006C5312E16D5310E16E530EE15B2C07D0EF
:102080008A2BD8B48B2B5FEC06F01EDC05D08C2B92
:10209000D8B48D2B7AEC06F032D09F5317E06953F9
:1020A00014E16A5312E16D5310E16E530EE15B527D
:1020B00007E08A2BD8B48B2B5FEC06F005DC05D04B
:1020C0008C2BD8B48D2B7AEC06F019D0A05317E0E6
:1020D0006B5315E16C5313E1695311E16A530FE13E
:1020E0005B5208E08A2BD8B48B2B5FEC06F064ECD3
:1020F0000CF005D08C2BD8B48D2B7AEC06F01ED0CA
:10210000295028242A24256E2C502B242D24266E79
:102110002550000803E32650000810E22550265CF5
:1021200008E28A2BD8B48B2B5FEC06F064EC0CF041
:1021300005D08C2BD8B48D2B7AEC06F02A6A2AC0F5
:1021400029F029C028F028C025F02D6A2DC02CF0D8
:102150002CC02BF02BC026F0120076517B5D04E0E2
:1021600076C07BF0010E7A6F7A2D1ED0010E765D5F
:10217000F40F18E20C0FD5EF10F014D02B5203E13E
:10218000010E286E01D02B6A2ADF0CD028DF0AD07E
:1021900009D0285203E1010E2B6E01D0286A1FDFFF
:1021A00001D01DDF7A6B756B1200E824F76AF736F1
:1021B000C50FF66E210EF7220A00F550FA6E0800E0
:1021C000F550F96E7A21A421A421A4217C218C212F
:1021D0009021A421A421A4219221A2217C5322E1B7
:1021E0006B2D20D06C531EE17E531CE17F531AE10E
:1021F0005B5203E15C5201E18ADD080E0101DC6FF4
:10220000030EDD6F00013EEC04F07F0E0101DB6F79
:10221000000167EC04F0010E996F7D6F7E6F806F97
:102220007C6F1ED17C530EE16B2D0CD06C2D0AD02F
:102230007E2D08D07F5306E1030E7D6F806B010E6B
:102240007C6F0ED17C530DE16B530BE16C2D09D0EB
:102250007E2D07D07F5305E1040E7D6F010E7C6F4C
:10226000FFD07C532AE16B5328E16C5326E1805365
:1022700024E17E2D22D07F5320E1080E0101DC6F86
:10228000030EDD6F00013EEC04F0A20EF66E030EAD
:10229000F76E29EC05F08251040807E1996B050EF1
:1022A0007D6F7E6B010E7C6F07D0996B060E7D6F84
:1022B0007E6B806B010E7C6FD3D07C5320E16B531F
:1022C0001EE16C531CE1802D1AD07E2D18D07F5357
:1022D00016E1080E0101DC6F030EDD6F00013EEC1C
:1022E00004F0A40EF66E030EF76E29EC05F0996B60
:1022F000060E7D6F7E6B806B010E7C6FB1D07C53C0
:102300000EE16B2D0CD06C530AE17E2D08D07F536B
:1023100006E1020E7D6F010E806F7C6FA1D07C53B1
:1023200023E16B5321E16C2D1FD07E531DE17F53C0
:102330001BE15B5203E15C5201E1E9DC080E0101A3
:10234000DC6F030EDD6F00013EEC04F07E0E010138
:10235000DB6F000167EC04F0010E996F070E7D6FD3
:10236000010E7F6F7C6F7CD07C530EE16B530CE1D0
:102370006C2D0AD07E5308E17F2D06D0080E7D6FAC
:10238000010E806F7C6F6CD07C530EE16B2D0CD0F6
:102390006C2D0AD07E5308E17F2D06D0090E7D6F8B
:1023A000806B010E7C6F5CD07C530DE16B2D0BD0EC
:1023B0006C5309E17E5307E17F2D05D00A0E7D6F36
:1023C000010E7C6F4DD07C532AE16B5328E16C5396
:1023D00026E1805324E17E5322E17F2D20D0080E98
:1023E0000101DC6F030EDD6F00013EEC04F0A60E70
:1023F000F66E030EF76E29EC05F082510A0807E12C
:10240000996B0B0E7D6F7F6B010E7C6F07D0996B04
:102410000C0E7D6F7F6B806B010E7C6F21D07C5327
:102420001FE16B531DE16C531BE1802D19D07E53CE
:1024300017E17F2D15D0080E0101DC6F030EDD6F53
:1024400000013EEC04F0A80EF66E030EF76E29ECC8
:1024500005F0996B0C0E7D6F7F6B806B010E7C6FAE
:1024600012007D51825D04E07DC082F0010E816F1B
:10247000812D1ED0010E7D5DF40F18E20C0F59EF77
:1024800012F014D02C5203E1010E296E01D02C6AF7
:10249000A6DD0CD0A4DD0AD009D0295203E1010E3B
:1024A0002C6E01D0296A9BDD01D099DD816B7C6B9C
:1024B0001200E824F76AF736CD0FF66E240EF722E5
:1024C0000A00F550FA6E0800F550F96E8224AC242B
:1024D000AC24AC24842494249824AC24AC24AC24D0
:1024E0009A24AA24835322E16D2D20D06E531EE13D
:1024F00085531CE186531AE15B5203E15C5201E112
:1025000006DC080E0101DC6F040EDD6F00013EECFD
:1025100004F07F0E0101DB6F000167EC04F0010E97
:102520009A6F846F856F876F836F1FD183530EE11E
:102530006D2D0CD06E2D0AD0852D08D0865306E166
:10254000030E846F876B010E836F0FD183530DE1F0
:102550006D530BE16E2D09D0852D07D0865305E113
:10256000040E846F010E836F00D183532AE16D53F3
:1025700028E16E5326E1875324E1852D22D086532E
:1025800020E1080E0101DC6F040EDD6F00013EEC5E
:1025900004F0AA0EF66E030EF76E29EC05F08951D1
:1025A000040807E19A6B050E846F856B010E836F3B
:1025B00007D09A6B060E846F856B876B010E836F55
:1025C000D4D0835320E16D531EE16E531CE1872D5F
:1025D0001AD0852D18D0865316E1080E0101DC6F44
:1025E000040EDD6F00013EEC04F0AC0EF66E030E3F
:1025F000F76E29EC05F09A6B060E846F856B876B7E
:10260000010E836FB2D083530EE16D2D0CD06E534B
:102610000AE1852D08D0865306E1020E846F010E73
:10262000876F836FA2D0835324E16D5322E16E2D17
:1026300020D085531EE186531CE15B5204E15C52BD
:1026400002E187EC0EF0080E0101DC6F040EDD6F75
:1026500000013EEC04F07E0E0101DB6F000167EC2F
:1026600004F0010E9A6F070E846F010E866F836F60
:102670007CD083530EE16D530CE16E2D0AD085534F
:1026800008E1862D06D0080E846F010E876F836FD8
:102690006CD083530EE16D2D0CD06E2D0AD0855376
:1026A00008E1862D06D0090E846F876B010E836FBB
:1026B0005CD083530DE16D2D0BD06E5309E1855332
:1026C00007E1862D05D00A0E846F010E836F4DD071
:1026D00083532AE16D5328E16E5326E1875324E1A9
:1026E000855322E1862D20D0080E0101DC6F040EF7
:1026F000DD6F00013EEC04F0AE0EF66E030EF76ED9
:1027000029EC05F089510A0807E19A6B0B0E846FDA
:10271000866B010E836F07D09A6B0C0E846F866BED
:10272000876B010E836F21D083531FE16D531DE131
:102730006E531BE1872D19D0855317E1862D15D0D7
:10274000080E0101DC6F040EDD6F00013EEC04F0A9
:10275000B00EF66E030EF76E29EC05F09A6B0C0EB8
:10276000846F866B876B010E836F12008451895DC5
:1027700004E084C089F0010E886F882D1ED0010E00
:10278000845DF40F18E20C0FDEEF13F014D02D521D
:1027900003E1010E2A6E01D02D6A21DC0CD01FDC72
:1027A0000AD009D02A5203E1010E2D6E01D02A6A07
:1027B00016DC01D014DC886B836B1200E824F76A06
:1027C000F736D70FF66E270EF7220A00F550FA6E8D
:1027D0000800F550F96E8C27B627B627B6278E2746
:1027E0009E27A227B627B627B627A427B427938803
:1027F000556A81B8552A552C0CD05E6A5D6A696BA2
:102800009B6BA26BA16B9E5303E094968B969E6B81
:102810002DD05E5203E15D50040802E2010E696FA3
:1028200069516F5D23E069C06FF0010E7A6F050E8C
:102830000101DC6F020EDD6F00013EEC04F0310E91
:102840000101DB6F000167EC04F03A0E0101DB6F60
:10285000000167EC04F06FC0D1F1180E0101D26FD6
:10286000000128EC08F0ACEC0EF077DC9588566A95
:1028700083B8562A562C0ED094988B88606B5F6A6A
:102880006A6B9B6BA26BA16B9E5303E094968B9635
:102890009E6B34D094988B98605303E15F5004088A
:1028A00002E2010E6A6F6A51705D28E06AC070F042
:1028B000010E7A6F0101DC6F020EDD6F00013EEC4C
:1028C00004F0320E0101DB6F000167EC04F03A0EF8
:1028D0000101DB6F000167EC04F070C0D1F1180E4C
:1028E0000101D26F000128EC08F0200E0101DB6F1E
:1028F000000167EC04F0ACEC0EF02FDC9384576A17
:1029000081B4572A572C0CD0626B616B6B6B9C6B3C
:10291000A46BA36B9F5303E094968B969F6B2CD074
:10292000625303E16151040802E2010E6B6F6B51C7
:10293000715D22E06BC071F0010E816F050E010127
:10294000DC6F030EDD6F00013EEC04F0330E01017D
:10295000DB6F000167EC04F03A0E0101DB6F000150
:1029600067EC04F071C0D1F1180E0101D26F0001C3
:1029700028EC08F033DC75DD9386586A81B6582A56
:10298000582C0ED094988B88646B636B6C6B9C6B2B
:10299000A46BA36B9F5303E094968B969F6B34D0EC
:1029A00094988B98645303E16351040802E2010E8A
:1029B0006C6F6C51725D28E06CC072F0010E816F1B
:1029C0000101DC6F030EDD6F00013EEC04F0340EFC
:1029D0000101DB6F000167EC04F03A0E0101DB6FCF
:1029E000000167EC04F072C0D1F1180E0101D26F42
:1029F000000128EC08F0200E0101DB6F000167ECFC
:102A000004F0EEEC10F02DDD9380596A81B0592A64
:102A1000592C0CD0666B656B6D6B9D6BA66BA56BB3
:102A2000A05303E094968B96A06B2CD0665303E1E1
:102A30006551040802E2010E6D6F6D51735D22E075
:102A40006DC073F0010E886F050E0101DC6F040E7E
:102A5000DD6F00013EEC04F0350E0101DB6F00017B
:102A600067EC04F03A0E0101DB6F000167EC04F043
:102A700073C0D1F1180E0101D26F000128EC08F0EB
:102A800031DD74DE93825A6A81B25A2A5A2C0ED0F2
:102A900094988B88686B676B6E6B9D6BA66BA56B50
:102AA000A05303E094968B96A06B33D094988B98A8
:102AB000685303E16751040802E2010E6E6F6E5124
:102AC000745D27E06EC074F0010E886F0101DC6F49
:102AD000040EDD6F00013EEC04F0360E0101DB6FE9
:102AE000000167EC04F03A0E0101DB6F000167ECB6
:102AF00004F074C0D1F1180E0101D26F000128EC6E
:102B000008F0200E0101DB6F000167EC04F0EADC45
:102B10002DDE692D08D06A2D06D09B5304E1010EED
:102B20009B6FA26BA16B6B2D08D06C2D06D09C53B4
:102B300004E1010E9C6FA46BA36B6D2D08D06E2D6C
:102B400006D09D5304E1010E9D6FA66BA56BD3EFDC
:102B500019F0F86AD09E078EFE0E006E060E016E0A
:102B6000020EE96E000EEA6EEE6A002EFDD7012E0F
:102B7000FBD71F6AB886080EAF6E020EB06EA60EA7
:102B8000AC6E900EAB6E206A94928B82436A456A5B
:102B9000526A536A546A556A566A576A586A596A39
:102BA0005A6A5B6A5C6A5E6A5D6A606B5F6A626BE6
:102BB000616B646B636B666B656B686B676B756B86
:102BC000766B776B786B796B7A6B7B6B7C6B7D6BE1
:102BD0007E6B7F6B806B816B826B836B846B856B91
:102BE000866B876B886B896B8B6B8A6B8D6B8C6B41
:102BF0008F6B8E6B916B906B936B926B956B946BF1
:102C0000986B996B9A6BAD6BAE6BB06BAF6BB16B36
:102C1000B26BB36BB46BF06BF16BC150C00B0F09AF
:102C2000C16E070EB46E55D00200190000050108F0
:102C300056352E303105C0206E800D00424F525265
:102C400041525F414C4C0D004752414241525F445A
:102C500041540D004C4545524355454E54410D00DD
:102C6000534F4C4943495441444F0D005041534147
:102C70004A45524F533A0D0053455249414C544531
:102C800053540D0053455249414C5F544F4B0D0076
:102C900053554249454E444F43320D0053494E4629
:102CA000554E43494F4E0D000AC02002800D0016BC
:102CB00000F20801140120012C01380144015001E7
:102CC0005C0168017401800106018C56312E3030A0
:102CD0000000000EF86E2C0EF76E280EF66E09003E
:102CE000F550006E000A13E00900F550016EE8BED1
:102CF00005D00F0BEA6E0900F5CFE9FF01BC090012
:102D000001AC0900F5CFEEFF004EE9D7F9D7F86A1C
:102D1000C150C00B0F09C16EC29068EF02F0A2EF64
:102D200002F0B50ECD6E9D80E70ECF6E960ECE6E84
:102D3000F298C00EF21294948B9494948B940C0E8F
:102D4000BD6E000E0409CA6E830ECB6E450EBE6EBC
:102D5000BD50CF0B3009BD6EF2CFD1F1F29E640EA3
:102D6000A96EA69CA69EA680A8500101D1BFF28E96
:102D7000406E402C01D019D0F250006EF29E640ECD
:102D8000A96E010EA86EA69CA69EA6840F01550EE4
:102D9000A76EAA0EA76EA682A6B2FED7A694005072
:102DA000F212000195EC06F001010001CBEF06F0F4
:102DB000F8EF06F05A6A5AC059F059C058F058C096
:102DC00057F057C056F056C055F0A66BA56BA6C07D
:102DD000A4F0A5C0A3F0A4C0A2F0A3C0A1F0A06B72
:102DE000A0C09FF09FC09EF0AA6BA96B958483A49E
:102DF00005D0010E456E1D0E226E03D0456A0F0EE2
:102E0000226E39EC05F00101D66B090ED56F000179
:102E1000C1EC03F001C052F00101D66B0A0ED56F70
:102E20000001C1EC03F001C053F00101D66B0B0EA1
:102E3000D56F0001C1EC03F001C054F0958601018B
:102E4000D06B83B6D02B436A466A3D6A3C6A9D8A42
:102E5000D1800001686B676B68C066F067C065F081
:102E600066C064F065C063F064C062F063C061F086
:102E700062C060F061C05FF060C05EF05FC05DF096
:102E8000956B946B95C093F094C092F0236A36EFE3
:102E900007F0246A94988B98949A8B9A376A366ACA
:102EA00037C035F036C034F0AB6B96908D90010E84
:102EB000AE6FF06BAD2D03D0C00EF212AD6B9586E8
:102EC000000E83B6010E0101D05D24E0320EDC6FEE
:102ED00000010CEC02F09586000E83B6010E010194
:102EE000D05D18E09586D06B83B6D02B452C12D0E0
:102EF000D05310E1EA0EF66E000EF76E000125ECDD
:102F000007F08C0EF66E020EF76E29EC05F095ECCC
:102F100006F00101968284A24FD00001AE2D01D0AF
:102F200002D0010149D096908D80B06BAF6BAE6B33
:102F3000949A8B8A000E82A0010E010805E1B0531D
:102F400003E1AF51C70803E2010EAE6FF3D752EFB2
:102F500007F001C092F1010192513F082DE1949ACE
:102F60008B9A010E436E0001686B676B68C066F058
:102F700067C065F066C064F065C063F064C062F06D
:102F800063C061F062C060F061C05FF060C05EF07D
:102F90005FC05DF0F16FEA6E920EE96E000E6DECAF
:102FA00000F00A000900F550EE6E0009FBE1969072
:102FB0008D90010EAE6F0101432CDED0010ED26F59
:102FC000920ED16F0001CBEF07F001C0F0F0090EB7
:102FD0000101DC6F010EDD6F00013EEC04F0F0C07A
:102FE000D1F1180E0101D26F000128EC08F0200E7B
:102FF0000101DB6F000167EC04F0F051010A10E001
:10300000030A24E0010A25E0070A42E0010A43E03E
:10301000030A55E0010A6BE00F0AD8B47AD08DD0CC
:1030200095EC06F0452C06D0980EF66E020EF76E63
:1030300025EC07F0F12D09D0452C07D0F16BA40E3B
:10304000F66E020EF76EB1EC08F085D0C1EC08F018
:1030500082D0452C06D0B00EF66E020EF76EB1ECA3
:1030600008F0040E0101D16FFA0EDC6F00010CECC8
:1030700002F00101D12FF8D7000195EC06F0452CA4
:1030800006D0BC0EF66E020EF76E25EC07F063D08C
:10309000CDEC08F060D0466A2CEF0BF0010E246EE8
:1030A000090E0101DC6F040EDD6F00013EEC04F03F
:1030B000C80EF66E020EF76E29EC05F04CD0010E2C
:1030C000AB6FAC6B090E0101DC6F030EDD6F00010D
:1030D0003EEC04F0CE0EF66E020EF76E29EC05F013
:1030E000D40EF66E020EF76E25EC07F034D0010E0A
:1030F000AB6FAC6B090E0101DC6F040EDD6F0001DC
:103100003EEC04F0E00EF66E020EF76E29EC05F0D0
:1031100022D0010EAB6FAC6B090E0101DC6F040E07
:10312000DD6F00013EEC04F064EC0CF0E60EF66E90
:10313000020EF76E29EC05F00ED0090E0101DC6FCE
:10314000020EDD6F00013EEC04F0EC0EF66E020E96
:10315000F76E29EC05F0F06B010EEA6E920EE96E47
:10316000006A026A200E016EF8EC08F03F6A3E6ABF
:10317000010E476E436A01010001AA5303E1A95100
:10318000B30804E2455202E0C1EC08F0AB532EE074
:10319000AC5109082BE2AB6B090E0101DC6F010E8B
:1031A000DD6F00013EEC04F0F00EF66E020EF76EDD
:1031B00029EC05F0090E0101DC6F030EDD6F000143
:1031C0003EEC04F0F60EF66E020EF76E29EC05F0FA
:1031D000090E0101DC6F040EDD6F00013EEC04F00E
:1031E000FC0EF66E020EF76E29EC05F046520CE06E
:1031F0004F50060809E2FF0A03E14E50CF0804E2EF
:10320000455202E026EF0DF0245202E0D1EF0DF01E
:103210009B5336E0A251000833E2FF0A03E1A151BB
:10322000F3082EE29E532CE19B6B9E5327E19F53A4
:1032300025E1A05323E10A0E0101DC6F010EDD6FD1
:1032400000013EEC04F0020EF66E030EF76E29EC60
:1032500005F0522A0101D66B090ED56F52C0D7F185
:103260000001E1EC02F0452C05D0435203E1C1EC32
:1032700008F004D0435202E1CDEC08F0010E9E6F3D
:103280009C5336E0A451000833E2FF0A03E1A35146
:10329000F3082EE29F532CE19C6B9E5327E19F5332
:1032A00025E1A05323E10A0E0101DC6F010EDD6F61
:1032B00000013EEC04F0060EF66E030EF76E29ECEC
:1032C00005F0532A0101D66B0A0ED56F53C0D7F112
:1032D0000001E1EC02F0452C05D0435203E1C1ECC2
:1032E00008F004D0435202E1CDEC08F0010E9F6FCC
:1032F0009D5336E0A651000833E2FF0A03E1A551D1
:10330000F3082EE2A0532CE19D6B9E5327E19F53BF
:1033100025E1A05323E10A0E0101DC6F010EDD6FF0
:1033200000013EEC04F00A0EF66E030EF76E29EC77
:1033300005F0542A0101D66B0B0ED56F54C0D7F19E
:103340000001E1EC02F0452C05D0435203E1C1EC51
:1033500008F004D0435202E1CDEC08F0010EA06F5A
:103360009D5312E19C5310E19B530EE10A0E0101A3
:10337000DC6F010EDD6F00013EEC04F00E0EF66E08
:10338000030EF76E29EC05F03F5002080AE2FF0A2F
:1033900003E13E50830805E2475203E039EC05F0B3
:1033A000476AF7EF13F0B1530BE0B251630808E23C
:1033B000B16B010EB36FB26B949A8B8A5BEC0CF01D
:1033C000B25109080BE2B35309E0949A8B9AB407FF
:1033D000B45302E0010EB16FB36BB26B04006AD557
:0233E0000300E8
:020000040030CA
:0E00000000C21E180086910000800FE00F4025
:00000001FF
;PIC18F4580
;CRC=610D  CREATED="16-may.-22 09:50"
