:0400000059EF15F0AF
:08000800046ED8CF05F0E0CF33
:1000100006F00001E9CF0CF0EACF07F0E1CF08F0DD
:10002000E2CF09F0D9CF0AF0DACF0BF0F3CF12F01C
:10003000F4CF13F0FACF14F0F5CF15F0F6CF16F099
:10004000F7CF17F000C00EF001C00FF002C010F0A3
:1000500003C011F09DAA30EF00F09EBAF1EF00F05E
:100060009DA036EF00F09EB067EF00F00EC000F0EC
:100070000FC001F010C002F011C003F00CC0E9FF86
:1000800007C0EAFF078E08C0E1FF09C0E2FF0AC00F
:10009000D9FF0BC0DAFF12C0F3FF13C0F4FF14C086
:1000A000FAFF15C0F5FF16C0F6FF17C0F7FF0450A2
:1000B00006C0E0FF05C0D8FF1000F76ACA0FF66E51
:1000C000000EF7220900F5501200280C01063E2A06
:1000D000D8B43F2AAF2BA72BD8B4A82BA85303E141
:1000E000A751630806E2A86BA76BA92BD8B4AA2B6B
:1000F000AC2B9388556A81B8552A555203E15D2A85
:10010000D8B45E2A9588566A83B8562A565203E1B7
:100110005F2AD8B4602B9384576A81B4572A575208
:1001200003E1612BD8B4622B9386586A81B6582AB2
:10013000585203E1632BD8B4642B9380596A81B081
:10014000592A595203E1652BD8B4662B93825A6A17
:1001500081B25A2A5A5203E1672BD8B4682BA12BDB
:10016000D8B4A22BA32BD8B4A42BA52BD8B4A62BE0
:100170004E2AD8B44F2AE70ECF6E960ECE6E9E90C2
:1001800036EF00F0030E0101A25F0AE3010EEA6EF2
:10019000A20EE96EEF5004E001D000D0EF2EFDD7A3
:1001A0000001DCEF00F0200E0101A06F020EA16F34
:1001B0009B0EA26F0001E6D70101A12FF9D7A02F56
:1001C00003D01F6A016A0AD09EAAF0D7AB501F6EF7
:1001D000AE50016E1FA202D0AB98AB88000105EFB4
:1001E00001F0F29CF29EF2BEFDD7416A41500F0829
:1001F0001FE3036A4150520FE96E010E0320EA6EBD
:10020000EACF9FF1E9CF9EF1CED79FC1EAFF9EC111
:10021000E9FF01C0EFFF412A036A4150520FE96E26
:10022000010E0320EA6EEF500D0801E101D0DED788
:10023000010E436EAD6F9E9A36EF00F0424F525260
:1002400041525F414C4C0D000C424F525241525FA3
:10025000414C4C00424F525241525F414C4C0D00B8
:1002600052455345545F4F4B0D0A0000424F5252C6
:1002700041525F414C4C0D0043324F4B0000433123
:100280004F4B000053455249414C5F544F4B0D00BA
:1002900043324F4B00005375623200002020202073
:1002A0000000202020200000202020200000424CC0
:1002B0000000424C0000424C000020200000534F40
:1002C0004C4943495441444F0D00504153414A4524
:1002D000524F533A2530344C642F2530344C642F20
:1002E0002530334C642F2530344C752F0D0041439D
:1002F000432B30313A2530344C752C2530344C7535
:100300002C2530344C752C2530334C752C2530334E
:100310004C752C253032752C0D0A00004143432BBF
:1003200030313A2530344C752C2530344C752C4402
:100330004553432C2530334C752C3030302C253030
:1003400032752C0D0A004445534300000C00200078
:10035000200020002000200020002000200020009D
:100360002000200020006D656D6F72793A25730DB5
:10037000000053313A254C64200042313A254C6448
:10038000200053323A254C64200042323A254C6416
:10039000200053313A202020200042313A202020F2
:1003A000200053323A254C64200042323A254C64F6
:1003B000200053455249414C544553540D00010E01
:1003C000EA6E940EE96EEF500DE0060E016E006AC3
:1003D000002EFED7012EFBD77B0E006E002EFED71F
:1003E000EF2EF3D7120001019BB102D0899801D002
:1003F000898892989BB302D0899401D08984929481
:100400009BB502D0899201D0898292929BB702D08B
:10041000899001D089809290000092968986020E80
:10042000006E002EFED700D0000092968996000143
:10043000120096948D94630E006E002EFED700D0AD
:100440000101985303E096948D8402D096948D9484
:1004500000009296899699399A6F0F0E9A179AC151
:100460009BF10001C0DF010199510F0B9A6F9B6F47
:100470000001B9DF1200010E216E96948D949296C0
:100480008996230E0101946F000199DF01018A6BA7
:100490008A5102080CE3030E9B6F0001A4DF050ED6
:1004A0000101946F00018BDF01018A2BF1D7020E4D
:1004B0009B6F000198DF01018A6B8A51030812E3E8
:1004C000036A8A510001F9DD01018B6F986B996F06
:1004D0000001AFDF050E0101946F000170DF010123
:1004E0008A2BEBD700013AEF16F0958E958C3CEFF6
:1004F00016F0080E016E050E006E002EFED78C9EC3
:10050000959E060E006E002EFED7010194378C9C3E
:10051000D8B0958CD8A0959C958E83AEFED7012E31
:1005200001D002D00001E7D7050E006E002EFED7E5
:100530008C9E959E0000958C060E006E002EFED7B8
:10054000060E006E002EFED7958E83AEFED7016A92
:10055000060E006E002EFED783BC01808C9E959EF9
:100560008C9C959C00011200958C050E006E002E4F
:10057000FED7958E060E006E002EFED78C9C959CA5
:10058000050E006E002EFED78C9E959EA00E0101DA
:10059000946F0001AEDF8FC192F10101936B8FC1A7
:1005A00094F10001A6DF8EC194F1A3DF90C194F114
:1005B000A0DF959C0000958E83AEFED7050E006EE1
:1005C000002EFED700D00000958C050E006E002E88
:1005D000FED7958C050E006E002EFED7958E060E6A
:1005E000006E002EFED78C9C959C050E006E002E92
:1005F000FED78C9E959EA00E0101946F000179DFBD
:1006000001500101919101B0918191A11ED0958C71
:10061000050E006E002EFED7958E060E006E002E83
:10062000FED783AEFED78C9C959C050E006E002EE7
:10063000FED78C9E959EA00E946F00015ADF01504C
:100640000101919101B09181E0D7959C0000958EB8
:1006500083AEFED7050E006E002EFED700D0000040
:10066000958C050E006E002EFED700011200F29C44
:10067000F29EF2BEFDD701018A6B8B6B8D6B8C6B8A
:100680008D6B8C6B8B6B8A6B3DC08DF13CC08CF19C
:100690008CC18BF18DC18AF18F6B140E8E6F8AC164
:1006A00090F1000161DF01018F6B150E8E6F8BC120
:1006B00090F1000159DFC00EF2121200080E010184
:1006C000926F00C093F1958C060E006E002EFED73F
:1006D000958E83AEFED783BCD88083ACD89001368C
:1006E000050E006E002EFED7959E8C9E922FEBD7A6
:1006F000958C060E006E002EFED78C9C9351D8A4CC
:10070000959C0000958E83AEFED7050E006E002EE0
:10071000FED78C9E959E060E006E002EFED78C9CFA
:10072000959C0001D1EF03F0958C050E006E002E14
:10073000FED7958E060E006E002EFED78C9C959CE3
:10074000050E006E002EFED78C9E959EA00E010118
:10075000946F0001CEDE8FC191F10101926B8FC1C8
:1007600094F10001C6DE8EC194F1C3DE958C050EB6
:10077000006E002EFED7958E060E006E002EFED760
:1007800083AEFED78C9C959C050E006E002EFED786
:100790008C9E959EA10E0101946F0001AADE006A55
:1007A0008DD701C090F1959C0000958E83AEFED749
:1007B000050E006E002EFED700D00000958C050EB1
:1007C000006E002EFED7010190C101F00001120061
:1007D000F29CF29EF2BEFDD701018A6B8B6B8D6B92
:1007E0008C6B8F6B140E8E6F00019EDF01C08AF13F
:1007F00001018F6B150E8E6F000196DF01C08BF12A
:1008000001018D6B8AC18CF18CC18DF18C6B8B5188
:100810008C138DC13DF08CC13CF0C00EF212000172
:10082000120001019551010A000107E0030A08E0E6
:10083000010A0AE0070A0CE010D00101966B0FD004
:10084000400E0101966F0BD0140E0101966F07D078
:10085000540E0101966F03D000010101966B010E49
:10086000945D962796518009976F986B996F000158
:10087000E0DD1200010193510C0A000105E0060AB7
:1008800011E0020A18E01ED00101986B010E996F69
:100890000001CFDD010E216E020E0101946F0001F7
:1008A0008EDD17D0212A010E0101946F21C095F130
:1008B0000001B7DF0ED00101986B100E996F000197
:1008C000B8DD07D0010E0101986F93C199F10001C5
:1008D000B0DD12000900F6CF8BF1F7CF8CF1F5CF28
:1008E00093F1C8DF8BC1F6FF8CC1F7FF01018A2F9E
:1008F00001D002D00001EED700011200EACF92F140
:10090000E9CF91F101018BAF08D0918F91A9912B83
:100910008A1F8B1F8A2BD8B48B2B8B39F0098D6FD4
:100920008D27E20F8E6F320F906F8B510F0B8E273A
:100930008E279027E90F8F6F8F278F278A390F0B0C
:100940008F2790278F379037901F90378A510F0B42
:1009500090278D37070E8C6F0A0E8F079027FDE3C7
:100960008E078F27FDE38D078E27FDE38C078D27EC
:10097000FDE3010EEA6E8C0EE96E070E9115919D56
:10098000ED52911507E191B9EE5291B903D0200EC5
:10099000006E20D0E926000EEA22E950900803E11B
:1009A000EA2C01D0918DEF50006E08E191BD06D088
:1009B00091B91DD091B702D0200E0BD091AF06D0C7
:1009C0002D0E006EED50919D919F04D091879199CD
:1009D000300E0026EACF8BF1E9CF8AF100C093F107
:1009E000000148DF8BC1EAFF8AC1E9FF0101EE5037
:1009F00091ADD3D7000112000900F5520CE0F6CFFB
:100A00008AF1F7CF8BF1F5CF93F134DF8AC1F6FF8E
:100A10008BC1F7FFF1D71200010E0101946F956FA2
:100A20000001FFDE4552D8B48FD0310E0101936F23
:100A3000000120DF200E0101936F00011BDF4CC17C
:100A400093F118DF4DC193F115DF4EC193F112DF21
:100A50004FC193F10FDF50C193F10CDF200E010164
:100A6000936F000107DF0E0E0101946F010E956F69
:100A70000001D7DE720EF66E030EF76E030E010153
:100A80008A6F000127DF100EE96E8BC08BF18AC0E0
:100A90008AF134DF200E0101936F0001EBDE0E0EB0
:100AA0000101946F020E956F0001BBDE7A0EF66EA7
:100AB000030EF76E030E01018A6F00010BDF100EAB
:100AC000E96E8DC08BF18CC08AF118DF200E010118
:100AD000936F0001CFDE0E0E0101946F030E956F30
:100AE00000019FDE820EF66E030EF76E030E01010B
:100AF0008A6F0001EFDE100EE96E35C08BF134C055
:100B00008AF1FCDE200E0101936F0001B3DE0E0EB0
:100B10000101946F040E956F000183DE8A0EF66E5C
:100B2000030EF76E030E01018A6F0001D3DE100E73
:100B3000E96E37C08BF136C08AF1E0DE200E01018C
:100B4000936F000197DE6ED0320E0101936F0001AA
:100B500091DE200E0101936F00018CDE4CC193F1F8
:100B600089DE4DC193F186DE4EC193F183DE4FC124
:100B700093F180DE50C193F17DDE200E0101936F71
:100B8000000178DE0E0E0101946F010E956F0001D9
:100B900048DE920EF66E030EF76E2EDF0E0E01018A
:100BA000946F020E956F00013CDE9A0EF66E030EF6
:100BB000F76E22DF0E0E0101946F030E956F000198
:100BC00030DEA20EF66E030EF76E030E01018A6F81
:100BD000000180DE100EE96E8BC08BF18AC08AF1B5
:100BE0008DDE200E0101936F000144DE0E0E010127
:100BF000946F040E956F000114DEAA0EF66E030EBC
:100C0000F76E030E01018A6F000164DE100EE96EBB
:100C10008DC08BF18CC08AF171DE200E0101936FC3
:100C2000000128DE12008C518A2501018A6F000123
:100C30008D518B2101018B6FD8908B3100018F6F0B
:100C400001018A3100018E6FE7DE5B6A5C6A2A6A05
:100C50002AC029F029C028F02D6A2DC02CF02CC004
:100C60002BF01200F29CF29EF2BEFDD701018F6BB9
:100C7000020E8E6F8AC090F1000176DC8BC08AF183
:100C800001018B6B8F6B010E8E6F8BC090F1000199
:100C90006BDCC00EF212C7DF1200F29CF29EF2BEB5
:100CA000FDD701018F6B040E8E6F8CC090F1000197
:100CB0005BDC8DC08AF101018B6B8F6B030E8E6F35
:100CC0008DC090F1000150DCC00EF212ACDF1200BA
:100CD000936B926B956B946B3D6A3C6AC8DC78DDD4
:100CE0008F6B8E6B916B906B8D6B8C6B8B6B8A6B40
:100CF000B9DFD3DF4D6A4C6A526A536A546A010104
:100D00008F6B090E8E6F52C090F100012DDC010136
:100D10008F6B0A0E8E6F53C090F1000125DC01012C
:100D20008F6B0B0E8E6F54C090F100011DDC4C0ECA
:100D3000F66E030EF76E60DE6FDE1200F29CF29E1E
:100D4000F2BEFDD701018A6B8B6B8D6B8C6B8F6B49
:100D5000010E8E6F0001E8DC01C08AF101018F6B8A
:100D6000020E8E6F0001E0DC01C08BF101018D6B82
:100D70008AC18CF18CC18FF18E6B8E518B118C6F6F
:100D80008FC18DF18DC18BF08CC18AF0C00EF21233
:100D9000000183EF16F0F29CF29EF2BEFDD7010136
:100DA0008A6B8B6B8D6B8C6B8F6B030E8E6F000160
:100DB000BBDC01C08AF101018F6B040E8E6F000154
:100DC000B3DC01C08BF101018D6B8AC18CF18CC148
:100DD0008FF18E6B8E518B118C6F8FC18DF18DC108
:100DE0008DF08CC18CF0C00EF212000185EF16F070
:100DF0000900F5520DE0F6CF8AF1F7CF8BF1F550EF
:100E00009EA8FED7AD6E8AC1F6FF8BC1F7FFF0D763
:100E10001200D0500F0BD0A8000ED080D082D08806
:100E2000D886D888070A07E0080A06E0010A0AE01F
:100E3000020A09E008D007D0B20EF66E030EF76E74
:100E4000D7DF01D000D0F4EF16F0100E01018F6F44
:100E5000010E8E6F208C9482100E006E002EFED735
:100E600000008E2F05D08F2F03D0206A016A24D076
:100E700082B2F2D7080E006E906BF2CF91F1F29E23
:100E8000008E0ED0009E0CD0D89082B2D8809033C5
:100E9000008C06D0009C002EF7D79051016E0CD02C
:100EA000A70E00BE2D0E016E012EFED7000000BE63
:100EB000E9D700BCEFD7E8D791BFF28E000112004E
:100EC000010190C1E9FF91C1EAFFEFCF94F193C115
:100ED00003F092C1E9FF93C1EAFFEF50945D15E181
:100EE00091C103F090C1E9FF03C0EAFFEF5203E1B3
:100EF000000E016E1FD091C103F09051902BD8B419
:100F0000912B922BD8B4932BDCD791C103F090C1D5
:100F1000E9FF91C1EAFFEFCF94F193C103F092C1D1
:100F2000E9FF93C1EAFFEF50945D02E2FF0E01D0AA
:100F3000010E016E0001BDEF07F001018C6B8C51B9
:100F40000A0823E3036A8CC102F0D8900236033604
:100F50000250B20FE96E000E0320EA6EECCF8FF163
:100F6000ED52EFCF8EF18FC191F18EC190F18BC117
:100F700093F18AC192F10001A3D701C08DF1010163
:100F80008D5301E102D08C2BDAD78CC101F0000126
:100F90007BEF17F001019151016A905D03E290C16E
:100FA00000F00CD0006A080E926F90370036915115
:100FB000005CD8B0006E0136922FF7D70001120006
:100FC000200E01018BA9300E8C6F8AC100F08AAF10
:100FD00008D0001E002A00C08AF12D0E8C6F8B8F66
:100FE0008B8101508AC190F1640E916F0001D2DFB4
:100FF00000C08AF1300E012401018D6F8AC190F189
:101000000A0E916F0001C6DF300E002401018F6FC0
:10101000300E01248E6F8CC100F0300E8D5D04E027
:101020008B838BBF8B8512D08CC18DF1200E8C6F82
:10103000300E8E5D04E08B818BBF8B8307D0D8A4EC
:101040008B8104E18DC18EF1200E8D6F8BB505D0A3
:101050008BB307D08BB109D00CD08CC193F10001B8
:1010600009DC8DC193F1000105DC8EC193F1000113
:1010700001DC8FC193F100013AEC04F01200BE0EC6
:10108000F66E020EF76EB4DEAA6BA96B010E466E09
:101090004F6A4E6A1200F2CF03F0F29E94908B904A
:1010A000080E016E00D00000018E10D0019E0101DB
:1010B00093330001D8B08B80D8A08B90018C06D0E0
:1010C000019C012EF4D700D000008B80A70EE96EA2
:1010D000E92EFED700D001BEE9D701BCF1D703BE8F
:1010E000F28E12000900F5520CE0F6CF8AF1F7CF2C
:1010F0008BF1F5CF93F1CFDF8AC1F6FF8BC1F7FFFC
:10110000F1D7B7EF17F00900F6CF8DF1F7CF8EF1D9
:10111000F5509EA8FED7AD6E8DC1F6FF8EC1F7FFCC
:1011200001018C2F01D002D00001EDD7000196EF14
:1011300009F0EACF94F1E9CF93F101018DAF08D026
:10114000938F93A9932B8C1F8D1F8C2BD8B48D2B31
:101150008D39F0098F6F8F27E20F906F320F926FEA
:101160008D510F0B902790279227E90F916F9127B0
:1011700091278C390F0B9127922791379237921F25
:1011800092378C510F0B92278F37070E8E6F0A0EF6
:1011900091079227FDE390079127FDE38F079027A2
:1011A000FDE38E078F27FDE3010EEA6E8E0EE96EDA
:1011B000070E9315939DED52931507E193B9EE52E7
:1011C00093B903D0200E006E20D0E926000EEA224B
:1011D000E950920803E1EA2C01D0938DEF50006EA4
:1011E00008E193BD06D093B914D093B702D0200E76
:1011F0000BD093AF06D02D0E006EED50939D939FB4
:1012000004D093879399300E002600509EA8FED7F5
:10121000AD6EEE5093ADDCD700011200EACF94F131
:10122000E9CF93F101018D39F0098F6F8F27E20F1C
:10123000906F320F926F8D510F0B9027902792274E
:10124000E90F916F912791278C390F0B91279227E6
:1012500091379237921F92378C510F0B92278F370D
:10126000070E8E6F0A0E91079227FDE390079127D4
:10127000FDE38F079027FDE38E078F27FDE3010E27
:10128000EA6E8E0EE96E070E9315939DE926000E09
:10129000EA22E950920803E1EA2C01D0938DEF5045
:1012A000006E08E193BD06D093B90CD093B702D07D
:1012B000200E03D093879399300E002600509EA8ED
:1012C000FED7AD6EEE5093ADE4D70001BEEF09F04E
:1012D0008C518A2501018C6F00018D518B210101F8
:1012E0008D6FD8908D318B6F8C318A6F5350522413
:1012F00054244C6E4D6A010E0001AB6FAC6B090EAD
:101300000101946F030E956F000111EC04F0AB0E18
:101310000101936F00013AEC04F0CA0EF66E020E62
:10132000F76E0A0E01018C6F0001EDD60A0EE96E10
:101330008BC08DF18AC08CF1FCDE2F0E9EA8FED7EB
:10134000AD6E0A0EE96E8DC08DF18CC08CF1F1DEB0
:101350002F0E9EA8FED7AD6E0B0EE96E4DC08DF11F
:101360004CC08CF1E6DE2F0E9EA8FED7AD6E090EA6
:10137000E96E8BC18DF18AC18CF150D72F0E9EA8DA
:10138000FED7AD6E0D0E9EA8FED7AD6E12000166A3
:1013900003D0026602D007D0022A00C0EEFF012E61
:1013A000FCD7022EFAD712009D9A396A386A3B6A36
:1013B0003A6A2F6A2E6A316A306A976B966B336A83
:1013C000326A916B906B010EEA6E6F0EE96E006AE5
:1013D000026A040E016EDBDF010EEA6E730EE96E27
:1013E000006A026A040E016ED2DF010EEA6E770E09
:1013F000E96E006A026A030E016EC9DF010EEA6E31
:10140000770EE96E006A026A040E016EC0DF0A0EF2
:10141000416E426A426A425003081EE3036A425028
:101420006F0F016E010E032201C08AF1010103C09A
:101430008BF10A0E4224036A520FE96E010E03205B
:10144000EA6EEFCF8CF18BC1EAFF01C0E9FF8CC1DE
:10145000EFFF422A0001DFD7426A425003081EE331
:10146000036A4250730F016E010E032201C08AF11C
:10147000010103C08BF10F0E4224036A520FE96E83
:10148000010E0320EA6EEFCF8CF18BC1EAFF01C0A1
:10149000E9FF8CC1EFFF422A0001DFD7426A4250C8
:1014A00002081EE3036A4250770F016E010E032209
:1014B00001C08AF1010103C08BF1140E4224036ABA
:1014C000520FE96E010E0320EA6EEFCF8CF18BC153
:1014D000EAFF01C0E9FF8CC1EFFF422A0001DFD71C
:1014E000426A425003081EE3036A4250840F016EB1
:1014F000010E032201C08AF1010103C08BF1180E15
:101500004224036A520FE96E010E0320EA6EEFCF08
:101510008CF18BC1EAFF01C0E9FF8CC1EFFF422AC9
:101520000001DFD7D8EF17F0455200E11200949A7E
:101530008B8AFADFAF6B010EB06FB12B120009007E
:10154000F6CF8BF1F7CF8CF1F5CF93F1A4DD8BC102
:10155000F6FF8CC1F7FF01018A2F01D002D00001F4
:10156000EED700011200EACF92F1E9CF91F101012B
:101570008B39F0098D6F8D27E20F8E6F320F906FD0
:101580008B510F0B8E278E279027E90F8F6F8F2798
:101590008F278A390F0B8F2790278F379037901F0F
:1015A00090378A510F0B90278D37070E8C6F0A0EDC
:1015B0008F079027FDE38E078F27FDE38D078E278A
:1015C000FDE38C078D27FDE3010EEA6E8C0EE96EBC
:1015D000070E9115919DE926000EEA22E950900828
:1015E00003E1EA2C01D0918DEF50006E08E191BD2E
:1015F00006D091B915D091B702D0200E03D09187B3
:101600009199300E0026EACF8BF1E9CF8AF100C024
:1016100093F1000140DD8BC1EAFF8AC1E9FF0101BE
:10162000EE5091ADDBD70001120001508AC190F15C
:10163000640E0101916F0001ADDC00C08AF1015020
:10164000300E08E101018BA30FD08BB70DD08BB901
:10165000200E04D001018B978B998B81012601C04C
:1016600093F1000118DD01018AC190F10A0E916F1A
:10167000000190DC00C08AF10150300E08E1010148
:101680008BB70AD08BA108D08BB9200E00010126A0
:1016900001C093F100DD0101300E8A278AC193F168
:1016A0000001F9DC12009D9A5350522454244C6ED0
:1016B0004D6A010EEA6E6F0EE96E006A026A040E50
:1016C000016E65DE010EEA6E730EE96E006A026A53
:1016D000040E016E5CDE010EEA6E770EE96E006AA2
:1016E000026A030E016E53DE0A0E416E426A8C518D
:1016F0008A2501018A6F00018D518B2101018B6FB9
:10170000D8908B31396E8A31386E0001E8EC03F0E5
:101710003C503824906F3D503920916F010E236E5C
:101720001C0EF66E030EF76E070E01018A6F0001A4
:1017300006DF090EE96E91C08BF190C08AF113DFCC
:101740002C0E0101936F0001A6DC090EE96E39C071
:101750008BF138C08AF107DF2E0EF66E030EF76E9E
:10176000060E01018A6F0001EADE0A0EE96E4DC025
:101770008BF14CC08AF1F7DE390EF66E030EF76E70
:10178000050E01018A6F0001DADE23C08AF1010E25
:1017900001018B6F000149DF420EF66E030EF76EFA
:1017A000030E01018A6F0001CADE090E0101946F68
:1017B000030E956F000111EC04F0AB0E0101936F65
:1017C00000013AEC04F0090E0101946F040E956FCC
:1017D000000111EC04F0460EF66E030EF76EFCEC01
:1017E00004F0010EAB6FAC6BAA6BA96B466A9D8AC5
:1017F00089EF18F001018C6B8A51300804E18B539A
:1018000002E18C6B47D08A51310805E18B5303E12B
:10181000010E8C6F3FD08A51320805E18B5303E1F2
:10182000020E8C6F37D08A51330805E18B5303E1E8
:10183000030E8C6F2FD08A51340805E18B5303E1DE
:10184000040E8C6F27D08A51350805E18B5303E1D4
:10185000050E8C6F1FD08A51360805E18B5303E1CA
:10186000060E8C6F17D08A51370805E18B5303E1C0
:10187000070E8C6F0FD08A51380805E18B5303E1B6
:10188000080E8C6F07D08A51390804E18B5302E1AE
:10189000090E8C6F8CC101F00001120001018B6BED
:1018A00084C18AF10001A6DF015210E0416A010102
:1018B0008B6B84C18AF100019DDF0150415C06E21F
:1018C000E80E3226030E3322412AF1D701018B6B39
:1018D00085C18AF100018EDF015210E0416A0101E9
:1018E0008B6B85C18AF1000185DF0150415C06E206
:1018F000640E3226000E3322412AF1D701018B6B90
:1019000086C18AF1000176DF015210E0416A0101CF
:101910008B6B86C18AF100016DDF0150415C06E2EC
:101920000A0E3226000E3322412AF1D701018B6BB9
:1019300087C18AF100015EDF01503226000E33229A
:1019400001018B6B6FC18AF1000154DF015210E07D
:10195000416A01018B6B6FC18AF100014BDF0150BD
:10196000415C06E2E80E2E26030E2F22412AF1D713
:1019700001018B6B70C18AF100013CDF015210E064
:10198000416A01018B6B70C18AF1000133DF0150A4
:10199000415C06E2640E2E26000E2F22412AF1D76A
:1019A00001018B6B71C18AF1000124DF015210E04B
:1019B000416A01018B6B71C18AF100011BDF01508B
:1019C000415C06E20A0E2E26000E2F22412AF1D794
:1019D00001018B6B72C18AF100010CDF01502E26D0
:1019E000000E2F222FC035F02EC034F001018B6B7A
:1019F00073C18AF10001FEDE015210E0416A01016B
:101A00008B6B73C18AF10001F5DE0150415C06E287
:101A1000E80E3026030E3122412AF1D701018B6BEB
:101A200074C18AF10001E6DE015210E0416A010151
:101A30008B6B74C18AF10001DDDE0150415C06E26E
:101A4000640E3026000E3122412AF1D701018B6B42
:101A500075C18AF10001CEDE015210E0416A010138
:101A60008B6B75C18AF10001C5DE0150415C06E255
:101A70000A0E3026000E3122412AF1D701018B6B6C
:101A800076C18AF10001B6DE01503026000E312207
:101A900031C037F030C036F001018B6B77C18AF16D
:101AA0000001A8DE015210E0416A01018B6B77C191
:101AB0008AF100019FDE0150415C06E2640E962728
:101AC000000E9723412AF1D701018B6B78C18AF16F
:101AD000000190DE015210E0416A01018B6B78C178
:101AE0008AF1000187DE0150415C06E20A0E96276A
:101AF000000E9723412AF1D701018B6B79C18AF13E
:101B0000000178DE01509627000E97238C518A251C
:101B100001018A6F00018D518B2101018B6FD890DB
:101B20008B31396E8A31386E30502E248A6F3150A5
:101B30002F208B6FD8908B31516E8A31506E0001FF
:101B4000E8EC03F03250505C0FE13350515C0CE193
:101B500051C03BF050C03AF03BC03DF03AC03CF0C1
:101B600037EC03F0236A02D0020E236E3A50382479
:101B7000906F3B503920916F5350522454244C6E37
:101B80004D6AEE0EF66E020EF76E070E01018A6FB9
:101B90000001D5DC090EE96E91C08BF190C08AF18D
:101BA000E2DC2C0E0101936F00014BEC08F0090EF2
:101BB000E96E39C08BF138C08AF1D5DC2C0E0101F9
:101BC000936F00014BEC08F0090EE96E3BC08BF1FE
:101BD0003AC08AF1C8DC2C0E0101936F00014BEC76
:101BE00008F00A0EE96E4DC08BF14CC08AF1BBDCE7
:101BF0002C0E0101936F00014BEC08F00A0EE96E08
:101C000097C08BF196C08AF1AEDC2C0E0101936F68
:101C100000014BEC08F023C08AF1010E01018B6F2B
:101C2000000103DD170EF66E030EF76E030E0101C1
:101C30008A6F000184DC0CEC05F0090E0101946F41
:101C4000030E956F000111EC04F0AB0E0101936FD0
:101C500000013AEC04F0010EAB6FAC6BAA6BA96B00
:101C6000246A9D8A8DEF18F05B5222E15C5220E1DC
:101C7000692D03D06B2D01D009D0692D03D06D2DB6
:101C800001D004D06B2D04D06D2D02D0010E5B6EFF
:101C90006A2D03D06C2D01D009D06A2D03D06E2D92
:101CA00001D004D06C2D04D06E2D02D0010E5C6EDC
:101CB0001200755322E1692D20D06A531EE177533B
:101CC0001CE178531AE15B5203E15C5201E1CCDF85
:101CD000080E0101946F020E956F000111EC04F0E3
:101CE0007F0E0101936F00013AEC04F0010E986F32
:101CF000766F776F796F756F1ED175530EE1692D11
:101D00000CD06A2D0AD0772D08D0785306E1030E47
:101D1000766F796B010E756F0ED175530DE16953B6
:101D20000BE16A2D09D0772D07D0785305E1040E19
:101D3000766F010E756FFFD075532AE1695328E164
:101D40006A5326E1795324E1772D22D0785320E19C
:101D5000080E0101946F020E956F000111EC04F062
:101D60004E0EF66E030EF76EFCEC04F0986B7B5192
:101D7000040806E1050E766F776B010E756F07D0CC
:101D8000986B060E766F776B796B010E756FD3D0FB
:101D9000755320E169531EE16A531CE1792D1AD075
:101DA000772D18D0785316E1080E0101946F020EBA
:101DB000956F000111EC04F0500EF66E030EF76EF5
:101DC000FCEC04F0986B060E766F776B796B010E66
:101DD000756FB1D075530EE1692D0CD06A530AE1CD
:101DE000772D08D0785306E1020E766F010E796FD9
:101DF000756FA1D0755323E1695321E16A2D1FD07E
:101E000077531DE178531BE15B5203E15C5201E122
:101E10002BDF080E0101946F020E956F000111EC8B
:101E200004F07E0E0101936F00013AEC04F0010E04
:101E3000986F070E766F010E786F756F7CD07553B3
:101E40000EE169530CE16A2D0AD0775308E1782D31
:101E500006D0080E766F010E796F756F6CD07553D2
:101E60000EE1692D0CD06A2D0AD0775308E1782D48
:101E700006D0090E766F796B010E756F5CD07553C5
:101E80000DE1692D0BD06A5309E1775307E1782DF5
:101E900005D00A0E766F010E756F4DD075532AE18D
:101EA000695328E16A5326E1795324E1775322E10B
:101EB000782D20D0080E0101946F020E956F00015D
:101EC00011EC04F0520EF66E030EF76EFCEC04F00B
:101ED0007B510A0807E1986B0B0E766F786B010E49
:101EE000756F07D0986B0C0E766F786B796B010E5F
:101EF000756F21D075531FE169531DE16A531BE1D2
:101F0000792D19D0775317E1782D15D0080E0101DE
:101F1000946F020E956F000111EC04F0540EF66EF2
:101F2000030EF76EFCEC04F0986B0C0E766F786B7A
:101F3000796B010E756F1200695337E16A5335E111
:101F40006B5333E16C5331E16D532FE16E532DE14F
:101F5000295028242A24256E2C502B242D24266E2B
:101F60002550010803E32650010810E22550265CA5
:101F700008E28A2BD8B48B2B32EC06F097EC0AF0EF
:101F800005D08C2BD8B48D2B4DEC06F02A6A2AC0D4
:101F900029F029C028F028C025F02D6A2DC02CF08A
:101FA0002CC02BF02BC026F087D09E5305E19F5309
:101FB00003E1A053D8B480D09F519E25A025276E61
:101FC000272C4ED09E5318E06B5315E16C5313E150
:101FD0006D5311E16E530FE15B2C08D08A2BD8B4FE
:101FE0008B2B32EC06F097EC0AF005D08C2BD8B492
:101FF0008D2B4DEC06F033D09F5318E0695315E15B
:102000006A5313E16D5311E16E530FE15B5208E027
:102010008A2BD8B48B2B32EC06F097EC0AF005D063
:102020008C2BD8B48D2B4DEC06F019D0A05317E0B3
:102030006B5315E16C5313E1695311E16A530FE1DE
:102040005B5208E08A2BD8B48B2B32EC06F097EC6D
:102050000AF005D08C2BD8B48D2B4DEC06F01ED099
:10206000295028242A24256E2C502B242D24266E1A
:102070002550000803E32650000810E22550265C96
:1020800008E28A2BD8B48B2B32EC06F097EC0AF0DE
:1020900005D08C2BD8B48D2B4DEC06F02A6A2AC0C3
:1020A00029F029C028F028C025F02D6A2DC02CF079
:1020B0002CC02BF02BC026F0120076517B5D04E083
:1020C00076C07BF0010E7A6F7A2D1ED0010E765D00
:1020D000F40F18E20C0F85EF10F014D02B5203E12F
:1020E000010E286E01D02B6A27DF0CD025DF0AD025
:1020F00009D0285203E1010E2B6E01D0286A1CDFA3
:1021000001D01ADF7A6B756B1200E824F76AF73694
:10211000250FF66E210EF7220A00F550FA6E080020
:10212000F550F96EDA20042104210421DC20EC2092
:10213000F020042104210421F22002217C5322E119
:102140006B2D20D06C531EE17E531CE17F531AE1AE
:102150005B5203E15C5201E187DD080E0101946FDF
:10216000030E956F000111EC04F07F0E0101936FD7
:1021700000013AEC04F0010E996F7D6F7E6F806F65
:102180007C6F1ED17C530EE16B2D0CD06C2D0AD0D0
:102190007E2D08D07F5306E1030E7D6F806B010E0C
:1021A0007C6F0ED17C530DE16B530BE16C2D09D08C
:1021B0007E2D07D07F5305E1040E7D6F010E7C6FED
:1021C000FFD07C532AE16B5328E16C5326E1805306
:1021D00024E17E2D22D07F5320E1080E0101946F6F
:1021E000030E956F000111EC04F0560EF66E030E0F
:1021F000F76EFCEC04F08251040807E1996B050EC0
:102200007D6F7E6B010E7C6F07D0996B060E7D6F24
:102210007E6B806B010E7C6FD3D07C5320E16B53BF
:102220001EE16C531CE1802D1AD07E2D18D07F53F7
:1022300016E1080E0101946F030E956F000111EC79
:1022400004F0580EF66E030EF76EFCEC04F0996B7A
:10225000060E7D6F7E6B806B010E7C6FB1D07C5360
:102260000EE16B2D0CD06C530AE17E2D08D07F530C
:1022700006E1020E7D6F010E806F7C6FA1D07C5352
:1022800023E16B5321E16C2D1FD07E531DE17F5361
:102290001BE15B5203E15C5201E1E6DC080E010147
:1022A000946F030E956F000111EC04F07E0E010196
:1022B000936F00013AEC04F0010E996F070E7D6FE9
:1022C000010E7F6F7C6F7CD07C530EE16B530CE171
:1022D0006C2D0AD07E5308E17F2D06D0080E7D6F4D
:1022E000010E806F7C6F6CD07C530EE16B2D0CD097
:1022F0006C2D0AD07E5308E17F2D06D0090E7D6F2C
:10230000806B010E7C6F5CD07C530DE16B2D0BD08C
:102310006C5309E17E5307E17F2D05D00A0E7D6FD6
:10232000010E7C6F4DD07C532AE16B5328E16C5336
:1023300026E1805324E17E5322E17F2D20D0080E38
:102340000101946F030E956F000111EC04F05A0E19
:10235000F66E030EF76EFCEC04F082510A0807E1FA
:10236000996B0B0E7D6F7F6B010E7C6F07D0996BA5
:102370000C0E7D6F7F6B806B010E7C6F21D07C53C8
:102380001FE16B531DE16C531BE1802D19D07E536F
:1023900017E17F2D15D0080E0101946F030E956F84
:1023A000000111EC04F05C0EF66E030EF76EFCEC0F
:1023B00004F0996B0C0E7D6F7F6B806B010E7C6F50
:1023C00012007D51825D04E07DC082F0010E816FBC
:1023D000812D1ED0010E7D5DF40F18E20C0F09EF68
:1023E00012F014D02C5203E1010E296E01D02C6A98
:1023F000A3DD0CD0A1DD0AD009D0295203E1010EE2
:102400002C6E01D0296A98DD01D096DD816B7C6B42
:102410001200E824F76AF7362D0FF66E240EF72225
:102420000A00F550FA6E0800F550F96EE2230C240C
:102430000C240C24E423F423F8230C240C240C2473
:10244000FA230A24835322E16D2D20D06E531EE11E
:1024500085531CE186531AE15B5203E15C5201E1B2
:1024600003DC080E0101946F040E956F000111EC5E
:1024700004F07F0E0101936F00013AEC04F0010EAD
:102480009A6F846F856F876F836F1FD183530EE1BF
:102490006D2D0CD06E2D0AD0852D08D0865306E107
:1024A000030E846F876B010E836F0FD183530DE191
:1024B0006D530BE16E2D09D0852D07D0865305E1B4
:1024C000040E846F010E836F00D183532AE16D5394
:1024D00028E16E5326E1875324E1852D22D08653CF
:1024E00020E1080E0101946F040E956F000111ECBC
:1024F00004F05E0EF66E030EF76EFCEC04F08951EC
:10250000040807E19A6B050E846F856B010E836FDB
:1025100007D09A6B060E846F856B876B010E836FF5
:10252000D4D0835320E16D531EE16E531CE1872DFF
:102530001AD0852D18D0865316E1080E0101946F2C
:10254000040E956F000111EC04F0600EF66E030EA0
:10255000F76EFCEC04F09A6B060E846F856B876B4C
:10256000010E836FB2D083530EE16D2D0CD06E53EC
:102570000AE1852D08D0865306E1020E846F010E14
:10258000876F836FA2D0835324E16D5322E16E2DB8
:1025900020D085531EE186531CE15B5204E15C525E
:1025A00002E134EC0EF0080E0101946F040E956FF9
:1025B000000111EC04F07E0E0101936F00013AEC72
:1025C00004F0010E9A6F070E846F010E866F836F01
:1025D0007CD083530EE16D530CE16E2D0AD08553F0
:1025E00008E1862D06D0080E846F010E876F836F79
:1025F0006CD083530EE16D2D0CD06E2D0AD0855317
:1026000008E1862D06D0090E846F876B010E836F5B
:102610005CD083530DE16D2D0BD06E5309E18553D2
:1026200007E1862D05D00A0E846F010E836F4DD011
:1026300083532AE16D5328E16E5326E1875324E149
:10264000855322E1862D20D0080E0101946F040EDF
:10265000956F000111EC04F0620EF66E030EF76E3A
:10266000FCEC04F089510A0807E19A6B0B0E846FA9
:10267000866B010E836F07D09A6B0C0E846F866B8E
:10268000876B010E836F21D083531FE16D531DE1D2
:102690006E531BE1872D19D0855317E1862D15D078
:1026A000080E0101946F040E956F000111EC04F007
:1026B000640EF66E030EF76EFCEC04F09A6B0C0ED3
:1026C000846F866B876B010E836F12008451895D66
:1026D00004E084C089F0010E886F882D1ED0010EA1
:1026E000845DF40F18E20C0F8EEF13F014D02D520E
:1026F00003E1010E2A6E01D02D6A1EDC0CD01CDC19
:102700000AD009D02A5203E1010E2D6E01D02A6AA7
:1027100013DC01D011DC886B836B1200E824F76AAC
:10272000F736370FF66E270EF7220A00F550FA6ECD
:102730000800F550F96EEC26162716271627EE2608
:10274000FE26022716271627162704271427938804
:10275000556A81B8552A552C0CD05E6A5D6A696B42
:102760009B6BA26BA16B9E5303E094968B969E6B22
:102770002DD05E5203E15D50040802E2010E696F44
:1027800069516F5D23E069C06FF0010E7A6F050E2D
:102790000101946F020E956F000111EC04F0310EEF
:1027A0000101936F00013AEC04F03A0E0101936FBE
:1027B00000013AEC04F06FC08AF1180E01018B6F32
:1027C0000001E0EC07F059EC0EF077DC9588566AD2
:1027D00083B8562A562C0ED094988B88606B5F6A0B
:1027E0006A6B9B6BA26BA16B9E5303E094968B96D6
:1027F0009E6B34D094988B98605303E15F5004082B
:1028000002E2010E6A6F6A51705D28E06AC070F0E2
:10281000010E7A6F0101946F020E956F000111ECA9
:1028200004F0320E0101936F00013AEC04F03A0E0D
:102830000101936F00013AEC04F070C08AF1180EA8
:1028400001018B6F0001E0EC07F0200E0101936F96
:1028500000013AEC04F059EC0EF02FDC9384576A37
:1028600081B4572A572C0CD0626B616B6B6B9C6BDD
:10287000A46BA36B9F5303E094968B969F6B2CD015
:10288000625303E16151040802E2010E6B6F6B5168
:10289000715D22E06BC071F0010E816F050E0101C8
:1028A000946F030E956F000111EC04F0330E0101DB
:1028B000936F00013AEC04F03A0E0101936F0001AE
:1028C0003AEC04F071C08AF1180E01018B6F00011F
:1028D000E0EC07F033DC75DD9386586A81B6582A40
:1028E000582C0ED094988B88646B636B6C6B9C6BCC
:1028F000A46BA36B9F5303E094968B969F6B34D08D
:1029000094988B98645303E16351040802E2010E2A
:102910006C6F6C51725D28E06CC072F0010E816FBB
:102920000101946F030E956F000111EC04F0340E59
:102930000101936F00013AEC04F03A0E0101936F2C
:1029400000013AEC04F072C08AF1180E01018B6F9D
:102950000001E0EC07F0200E0101936F00013AEC5A
:1029600004F09EEC10F02DDD9380596A81B0592A55
:10297000592C0CD0666B656B6D6B9D6BA66BA56B54
:10298000A05303E094968B96A06B2CD0665303E182
:102990006551040802E2010E6D6F6D51735D22E016
:1029A0006DC073F0010E886F050E0101946F040E67
:1029B000956F000111EC04F0350E0101936F0001D9
:1029C0003AEC04F03A0E0101936F00013AEC04F086
:1029D00073C08AF1180E01018B6F0001E0EC07F063
:1029E00031DD74DE93825A6A81B25A2A5A2C0ED093
:1029F00094988B88686B676B6E6B9D6BA66BA56BF1
:102A0000A05303E094968B96A06B33D094988B9848
:102A1000685303E16751040802E2010E6E6F6E51C4
:102A2000745D27E06EC074F0010E886F0101946F31
:102A3000040E956F000111EC04F0360E0101936F46
:102A400000013AEC04F03A0E0101936F00013AECF8
:102A500004F074C08AF1180E01018B6F0001E0ECE4
:102A600007F0200E0101936F00013AEC04F0EADC5C
:102A70002DDE692D08D06A2D06D09B5304E1010E8E
:102A80009B6FA26BA16B6B2D08D06C2D06D09C5355
:102A900004E1010E9C6FA46BA36B6D2D08D06E2D0D
:102AA00006D09D5304E1010E9D6FA66BA56B58EFF8
:102AB00019F0F86AD09E078EFE0E006E060E016EAB
:102AC000020EE96E000EEA6EEE6A002EFDD7012EB0
:102AD000FBD71F6AB886080EAF6E020EB06EA60E48
:102AE000AC6E900EAB6E206A94908B80436A456A00
:102AF000526A536A546A556A566A576A586A596ADA
:102B00005A6A5B6A5C6A5E6A5D6A606B5F6A626B86
:102B1000616B646B636B666B656B686B676B756B26
:102B2000766B776B786B796B7A6B7B6B7C6B7D6B81
:102B30007E6B7F6B806B816B826B836B846B856B31
:102B4000866B876B886B896B8B6B8A6B8D6B8C6BE1
:102B50008F6B8E6B916B906B936B926B956B946B91
:102B6000986B996B9A6BAD6BAE6BAF6BB06BB16BD7
:102B7000C150C00B0F09C16E070EB46E55D00200D4
:102B80001900000500C856352E303105C0206E8072
:102B90000D004C4545524355454E54410D0047529A
:102BA000414241525F4441540D00424F5252415202
:102BB0005F414C4C0D00534F4C4943495441444FE5
:102BC0000D00504153414A45524F533A0D00534571
:102BD0005249414C544553540D0053455249414CC0
:102BE0005F544F4B0D0053554249454E444F4332BD
:102BF0000D0053494E46554E43494F4E0D000AC0F5
:102C00002002800D001600B2C800D400E000EC00E5
:102C1000F800040110011C012801340140010601E3
:102C20004C56312E30300000000EF86E2B0EF76E31
:102C30007E0EF66E0900F550006E000A13E00900E2
:102C4000F550016EE8BE05D00F0BEA6E0900F5CF16
:102C5000E9FF01BC090001AC0900F5CFEEFF004E11
:102C6000E9D7F9D7F86AC150C00B0F09C16EC290FD
:102C70003BEF02F075EF02F0B50ECD6E9D80E70ED2
:102C8000CF6E960ECE6EF298C00EF21294948B9484
:102C900094948B940C0EBD6E000E0409CA6E830EC4
:102CA000CB6E450EBE6EBD50CF0B3009BD6EF2CF60
:102CB0008AF1F29E640EA96EA69CA69EA680A850DC
:102CC00001018ABFF28E406E402C01D019D0F25023
:102CD000006EF29E640EA96E010EA86EA69CA69EC2
:102CE000A6840F01550EA76EAA0EA76EA682A6B2E5
:102CF000FED7A6940050F212000168EC06F0010124
:102D000000019EEF06F0CBEF06F05A6A5AC059F068
:102D100059C058F058C057F057C056F056C055F03B
:102D2000A66BA56BA6C0A4F0A5C0A3F0A4C0A2F09A
:102D3000A3C0A1F0A06BA0C09FF09FC09EF0AA6BA3
:102D4000A96B958483A405D0010E456E1D0E226EDD
:102D500003D0456A0F0E226E0CEC05F001018F6B5B
:102D6000090E8E6F000194EC03F001C052F00101D6
:102D70008F6B0A0E8E6F000194EC03F001C053F0CC
:102D800001018F6B0B0E8E6F000194EC03F001C0FC
:102D900054F095860101886B83B6882B436A466A96
:102DA0003D6A3C6A9D8AD1800001686B676B68C090
:102DB00066F067C065F066C064F065C063F064C02B
:102DC00062F063C061F062C060F061C05FF060C03B
:102DD0005EF05FC05DF0956B946B95C093F094C00E
:102DE00092F0236A09EF07F0246A94988B98949ADA
:102DF0008B9A376A366A37C035F036C034F0AB6B21
:102E0000AD2D03D0C00EF212AD6B9586000E83B6C9
:102E1000010E0101885D24E0320E946F0001DFECA9
:102E200001F09586000E83B6010E0101885D18E061
:102E30009586886B83B6882B452C12D0885310E179
:102E40003C0EF66E020EF76E0001F8EC06F0480E2E
:102E5000F66E020EF76EFCEC04F068EC06F0010171
:102E600082B240D045523EE0416A036A4150520F5F
:102E7000E96E010E0320EA6EEACF8DF1E9CF8CF105
:102E8000000125EC07F08DC1EAFF8CC1E9FF01C00C
:102E9000EFFF412A01015251400824E252515A08E1
:102EA00021E341500A0817E3036A4150520FE96ECB
:102EB000010E0320EA6EEACF8DF1E9CF8CF100011B
:102EC00025EC07F08DC1EAFF8CC1E9FF01C0EFFFDF
:102ED000412A0101E6D75351520802E1470E526FD1
:102EE000010E436E432CCDD0010E8B6F520E8A6FB4
:102EF00000019DEF07F001C089F1090E0101946FF7
:102F0000010E956F000111EC04F089C18AF1180ED1
:102F100001018B6F0001E0EC07F0200E0101936FBF
:102F200000013AEC04F0010E0101895DF80FD8B000
:102F300097D0080F000176EF19F068EC06F0452CE9
:102F400006D0540EF66E020EF76EF8EC06F0010194
:102F500087D000013FEC08F0010182D00001452C30
:102F600006D0600EF66E020EF76E72EF08F0040ED9
:102F700001018A6FFA0E946F0001DFEC01F001018C
:102F80008A2FF8D7000168EC06F0452C06D06C0EAD
:102F9000F66E020EF76EF8EC06F0010161D000014A
:102FA00068EC09F001015CD00001466AD4EF09F039
:102FB000010E246E090E0101946F040E956F00013D
:102FC00011EC04F0780EF66E020EF76EFCEC04F0D5
:102FD000010146D00001010EAB6FAC6B090E01017F
:102FE000946F030E956F000111EC04F07E0EF66EE7
:102FF000020EF76EFCEC04F0840EF66E020EF76E15
:10300000F8EC06F001012CD00001010EAB6FAC6BA7
:10301000090E0101946F040E956F000111EC04F08C
:10302000900EF66E020EF76EFCEC04F0010118D063
:103030000001010EAB6FAC6B090E0101946F040E21
:10304000956F000111EC04F097EC0AF0960EF66E05
:10305000020EF76EFCEC04F0010102D00001010148
:10306000010EEA6E520EE96E006A026A1D0E016ED2
:103070000001C7EC09F03F6A3E6A010E476E436AE1
:1030800001010001AA5303E1A951090804E24552D4
:1030900002E03FEC08F0AB532EE0AC5109082BE204
:1030A000AB6B090E0101946F010E956F000111ECDD
:1030B00004F09C0EF66E020EF76EFCEC04F0090EA6
:1030C0000101946F030E956F000111EC04F0A20E44
:1030D000F66E020EF76EFCEC04F0090E0101946F1F
:1030E000040E956F000111EC04F0A80EF66E020EAE
:1030F000F76EFCEC04F046520CE04F50060809E273
:10310000FF0A03E14E50CF0804E2455202E053EFBC
:103110000BF0245202E04EEF0CF09B5336E0A2512C
:10312000000833E2FF0A03E1A151F3082EE29E53A7
:103130002CE19B6B9E5327E19F5325E1A05323E194
:103140000A0E0101946F010E956F000111EC04F05D
:10315000AE0EF66E020EF76EFCEC04F0522A010180
:103160008F6B090E8E6F52C090F10001B4EC02F02B
:10317000452C05D0435203E13FEC08F004D0435204
:1031800002E168EC09F0010E9E6F9C5336E0A451F9
:10319000000833E2FF0A03E1A351F3082EE29F5334
:1031A0002CE19C6B9E5327E19F5325E1A05323E123
:1031B0000A0E0101946F010E956F000111EC04F0ED
:1031C000B20EF66E020EF76EFCEC04F0532A01010B
:1031D0008F6B0A0E8E6F53C090F10001B4EC02F0B9
:1031E000452C05D0435203E13FEC08F004D0435294
:1031F00002E168EC09F0010E9F6F9D5336E0A65185
:10320000000833E2FF0A03E1A551F3082EE2A053C0
:103210002CE19D6B9E5327E19F5325E1A05323E1B1
:103220000A0E0101946F010E956F000111EC04F07C
:10323000B60EF66E020EF76EFCEC04F0542A010195
:103240008F6B0B0E8E6F54C090F10001B4EC02F046
:10325000452C05D0435203E13FEC08F004D0435223
:1032600002E168EC09F0010EA06F9D5312E19C533E
:1032700010E19B530EE10A0E0101946F010E956F50
:10328000000111EC04F0BA0EF66E020EF76EFCECC3
:1032900004F03F5002080AE2FF0A03E13E508308AF
:1032A00005E2475203E00CEC05F0476AA7EF13F084
:1032B000AE2D0BD0AF51630808E2AE6B010EB06FBC
:1032C000AF6B949A8B8A94EC0AF0AF5109080BE229
:1032D000B05309E0949A8B9AB107B15302E0010E02
:1032E000AE6FB06BAF6B04008BD50300E824F76AB8
:1032F000F736070FF66E330EF7220A00F550FA6E16
:103300000800F550F96E3A2F542F5E2FA02FAA2FE8
:06331000D62F0A30323016
:020000040030CA
:0E00000000C21E180086910000800FE00F4025
:00000001FF
;PIC18F4580
;CRC=3F3C  CREATED="16-may.-22 12:03"
